{
  "contractName": "CakeVault",
  "abi": [
    {
      "inputs": [
        {
          "internalType": "contract IERC20",
          "name": "_token",
          "type": "address"
        },
        {
          "internalType": "contract IERC20",
          "name": "_receiptToken",
          "type": "address"
        },
        {
          "internalType": "contract IMasterChef",
          "name": "_masterchef",
          "type": "address"
        },
        {
          "internalType": "address",
          "name": "_admin",
          "type": "address"
        },
        {
          "internalType": "address",
          "name": "_treasury",
          "type": "address"
        }
      ],
      "stateMutability": "nonpayable",
      "type": "constructor"
    },
    {
      "anonymous": false,
      "inputs": [
        {
          "indexed": true,
          "internalType": "address",
          "name": "sender",
          "type": "address"
        },
        {
          "indexed": false,
          "internalType": "uint256",
          "name": "amount",
          "type": "uint256"
        },
        {
          "indexed": false,
          "internalType": "uint256",
          "name": "shares",
          "type": "uint256"
        },
        {
          "indexed": false,
          "internalType": "uint256",
          "name": "lastDepositedTime",
          "type": "uint256"
        }
      ],
      "name": "Deposit",
      "type": "event"
    },
    {
      "anonymous": false,
      "inputs": [
        {
          "indexed": true,
          "internalType": "address",
          "name": "sender",
          "type": "address"
        },
        {
          "indexed": false,
          "internalType": "uint256",
          "name": "performanceFee",
          "type": "uint256"
        },
        {
          "indexed": false,
          "internalType": "uint256",
          "name": "callFee",
          "type": "uint256"
        }
      ],
      "name": "Harvest",
      "type": "event"
    },
    {
      "anonymous": false,
      "inputs": [
        {
          "indexed": true,
          "internalType": "address",
          "name": "previousOwner",
          "type": "address"
        },
        {
          "indexed": true,
          "internalType": "address",
          "name": "newOwner",
          "type": "address"
        }
      ],
      "name": "OwnershipTransferred",
      "type": "event"
    },
    {
      "anonymous": false,
      "inputs": [],
      "name": "Pause",
      "type": "event"
    },
    {
      "anonymous": false,
      "inputs": [
        {
          "indexed": false,
          "internalType": "address",
          "name": "account",
          "type": "address"
        }
      ],
      "name": "Paused",
      "type": "event"
    },
    {
      "anonymous": false,
      "inputs": [],
      "name": "Unpause",
      "type": "event"
    },
    {
      "anonymous": false,
      "inputs": [
        {
          "indexed": false,
          "internalType": "address",
          "name": "account",
          "type": "address"
        }
      ],
      "name": "Unpaused",
      "type": "event"
    },
    {
      "anonymous": false,
      "inputs": [
        {
          "indexed": true,
          "internalType": "address",
          "name": "sender",
          "type": "address"
        },
        {
          "indexed": false,
          "internalType": "uint256",
          "name": "amount",
          "type": "uint256"
        },
        {
          "indexed": false,
          "internalType": "uint256",
          "name": "shares",
          "type": "uint256"
        }
      ],
      "name": "Withdraw",
      "type": "event"
    },
    {
      "inputs": [],
      "name": "MAX_CALL_FEE",
      "outputs": [
        {
          "internalType": "uint256",
          "name": "",
          "type": "uint256"
        }
      ],
      "stateMutability": "view",
      "type": "function",
      "constant": true
    },
    {
      "inputs": [],
      "name": "MAX_PERFORMANCE_FEE",
      "outputs": [
        {
          "internalType": "uint256",
          "name": "",
          "type": "uint256"
        }
      ],
      "stateMutability": "view",
      "type": "function",
      "constant": true
    },
    {
      "inputs": [],
      "name": "MAX_WITHDRAW_FEE",
      "outputs": [
        {
          "internalType": "uint256",
          "name": "",
          "type": "uint256"
        }
      ],
      "stateMutability": "view",
      "type": "function",
      "constant": true
    },
    {
      "inputs": [],
      "name": "MAX_WITHDRAW_FEE_PERIOD",
      "outputs": [
        {
          "internalType": "uint256",
          "name": "",
          "type": "uint256"
        }
      ],
      "stateMutability": "view",
      "type": "function",
      "constant": true
    },
    {
      "inputs": [],
      "name": "admin",
      "outputs": [
        {
          "internalType": "address",
          "name": "",
          "type": "address"
        }
      ],
      "stateMutability": "view",
      "type": "function",
      "constant": true
    },
    {
      "inputs": [],
      "name": "callFee",
      "outputs": [
        {
          "internalType": "uint256",
          "name": "",
          "type": "uint256"
        }
      ],
      "stateMutability": "view",
      "type": "function",
      "constant": true
    },
    {
      "inputs": [],
      "name": "lastHarvestedTime",
      "outputs": [
        {
          "internalType": "uint256",
          "name": "",
          "type": "uint256"
        }
      ],
      "stateMutability": "view",
      "type": "function",
      "constant": true
    },
    {
      "inputs": [],
      "name": "masterchef",
      "outputs": [
        {
          "internalType": "contract IMasterChef",
          "name": "",
          "type": "address"
        }
      ],
      "stateMutability": "view",
      "type": "function",
      "constant": true
    },
    {
      "inputs": [],
      "name": "owner",
      "outputs": [
        {
          "internalType": "address",
          "name": "",
          "type": "address"
        }
      ],
      "stateMutability": "view",
      "type": "function",
      "constant": true
    },
    {
      "inputs": [],
      "name": "paused",
      "outputs": [
        {
          "internalType": "bool",
          "name": "",
          "type": "bool"
        }
      ],
      "stateMutability": "view",
      "type": "function",
      "constant": true
    },
    {
      "inputs": [],
      "name": "performanceFee",
      "outputs": [
        {
          "internalType": "uint256",
          "name": "",
          "type": "uint256"
        }
      ],
      "stateMutability": "view",
      "type": "function",
      "constant": true
    },
    {
      "inputs": [],
      "name": "receiptToken",
      "outputs": [
        {
          "internalType": "contract IERC20",
          "name": "",
          "type": "address"
        }
      ],
      "stateMutability": "view",
      "type": "function",
      "constant": true
    },
    {
      "inputs": [],
      "name": "renounceOwnership",
      "outputs": [],
      "stateMutability": "nonpayable",
      "type": "function"
    },
    {
      "inputs": [],
      "name": "token",
      "outputs": [
        {
          "internalType": "contract IERC20",
          "name": "",
          "type": "address"
        }
      ],
      "stateMutability": "view",
      "type": "function",
      "constant": true
    },
    {
      "inputs": [],
      "name": "totalShares",
      "outputs": [
        {
          "internalType": "uint256",
          "name": "",
          "type": "uint256"
        }
      ],
      "stateMutability": "view",
      "type": "function",
      "constant": true
    },
    {
      "inputs": [
        {
          "internalType": "address",
          "name": "newOwner",
          "type": "address"
        }
      ],
      "name": "transferOwnership",
      "outputs": [],
      "stateMutability": "nonpayable",
      "type": "function"
    },
    {
      "inputs": [],
      "name": "treasury",
      "outputs": [
        {
          "internalType": "address",
          "name": "",
          "type": "address"
        }
      ],
      "stateMutability": "view",
      "type": "function",
      "constant": true
    },
    {
      "inputs": [
        {
          "internalType": "address",
          "name": "",
          "type": "address"
        }
      ],
      "name": "userInfo",
      "outputs": [
        {
          "internalType": "uint256",
          "name": "shares",
          "type": "uint256"
        },
        {
          "internalType": "uint256",
          "name": "lastDepositedTime",
          "type": "uint256"
        },
        {
          "internalType": "uint256",
          "name": "cakeAtLastUserAction",
          "type": "uint256"
        },
        {
          "internalType": "uint256",
          "name": "lastUserActionTime",
          "type": "uint256"
        }
      ],
      "stateMutability": "view",
      "type": "function",
      "constant": true
    },
    {
      "inputs": [],
      "name": "withdrawFee",
      "outputs": [
        {
          "internalType": "uint256",
          "name": "",
          "type": "uint256"
        }
      ],
      "stateMutability": "view",
      "type": "function",
      "constant": true
    },
    {
      "inputs": [],
      "name": "withdrawFeePeriod",
      "outputs": [
        {
          "internalType": "uint256",
          "name": "",
          "type": "uint256"
        }
      ],
      "stateMutability": "view",
      "type": "function",
      "constant": true
    },
    {
      "inputs": [
        {
          "internalType": "uint256",
          "name": "_amount",
          "type": "uint256"
        }
      ],
      "name": "deposit",
      "outputs": [],
      "stateMutability": "nonpayable",
      "type": "function"
    },
    {
      "inputs": [],
      "name": "withdrawAll",
      "outputs": [],
      "stateMutability": "nonpayable",
      "type": "function"
    },
    {
      "inputs": [],
      "name": "harvest",
      "outputs": [],
      "stateMutability": "nonpayable",
      "type": "function"
    },
    {
      "inputs": [
        {
          "internalType": "address",
          "name": "_admin",
          "type": "address"
        }
      ],
      "name": "setAdmin",
      "outputs": [],
      "stateMutability": "nonpayable",
      "type": "function"
    },
    {
      "inputs": [
        {
          "internalType": "address",
          "name": "_treasury",
          "type": "address"
        }
      ],
      "name": "setTreasury",
      "outputs": [],
      "stateMutability": "nonpayable",
      "type": "function"
    },
    {
      "inputs": [
        {
          "internalType": "uint256",
          "name": "_performanceFee",
          "type": "uint256"
        }
      ],
      "name": "setPerformanceFee",
      "outputs": [],
      "stateMutability": "nonpayable",
      "type": "function"
    },
    {
      "inputs": [
        {
          "internalType": "uint256",
          "name": "_callFee",
          "type": "uint256"
        }
      ],
      "name": "setCallFee",
      "outputs": [],
      "stateMutability": "nonpayable",
      "type": "function"
    },
    {
      "inputs": [
        {
          "internalType": "uint256",
          "name": "_withdrawFee",
          "type": "uint256"
        }
      ],
      "name": "setWithdrawFee",
      "outputs": [],
      "stateMutability": "nonpayable",
      "type": "function"
    },
    {
      "inputs": [
        {
          "internalType": "uint256",
          "name": "_withdrawFeePeriod",
          "type": "uint256"
        }
      ],
      "name": "setWithdrawFeePeriod",
      "outputs": [],
      "stateMutability": "nonpayable",
      "type": "function"
    },
    {
      "inputs": [],
      "name": "emergencyWithdraw",
      "outputs": [],
      "stateMutability": "nonpayable",
      "type": "function"
    },
    {
      "inputs": [
        {
          "internalType": "address",
          "name": "_token",
          "type": "address"
        }
      ],
      "name": "inCaseTokensGetStuck",
      "outputs": [],
      "stateMutability": "nonpayable",
      "type": "function"
    },
    {
      "inputs": [],
      "name": "pause",
      "outputs": [],
      "stateMutability": "nonpayable",
      "type": "function"
    },
    {
      "inputs": [],
      "name": "unpause",
      "outputs": [],
      "stateMutability": "nonpayable",
      "type": "function"
    },
    {
      "inputs": [],
      "name": "calculateHarvestCakeRewards",
      "outputs": [
        {
          "internalType": "uint256",
          "name": "",
          "type": "uint256"
        }
      ],
      "stateMutability": "view",
      "type": "function",
      "constant": true
    },
    {
      "inputs": [],
      "name": "calculateTotalPendingCakeRewards",
      "outputs": [
        {
          "internalType": "uint256",
          "name": "",
          "type": "uint256"
        }
      ],
      "stateMutability": "view",
      "type": "function",
      "constant": true
    },
    {
      "inputs": [],
      "name": "getPricePerFullShare",
      "outputs": [
        {
          "internalType": "uint256",
          "name": "",
          "type": "uint256"
        }
      ],
      "stateMutability": "view",
      "type": "function",
      "constant": true
    },
    {
      "inputs": [
        {
          "internalType": "uint256",
          "name": "_shares",
          "type": "uint256"
        }
      ],
      "name": "withdraw",
      "outputs": [],
      "stateMutability": "nonpayable",
      "type": "function"
    },
    {
      "inputs": [],
      "name": "available",
      "outputs": [
        {
          "internalType": "uint256",
          "name": "",
          "type": "uint256"
        }
      ],
      "stateMutability": "view",
      "type": "function",
      "constant": true
    },
    {
      "inputs": [],
      "name": "balanceOf",
      "outputs": [
        {
          "internalType": "uint256",
          "name": "",
          "type": "uint256"
        }
      ],
      "stateMutability": "view",
      "type": "function",
      "constant": true
    }
  ],
  "bytecode": "0x60e060405260c86006556019600755600a6008556203f4806009553480156200002757600080fd5b506040516200462b3803806200462b833981810160405260a08110156200004d57600080fd5b810190808051906020019092919080519060200190929190805190602001909291908051906020019092919080519060200190929190505050600062000098620002d460201b60201c565b9050806000806101000a81548173ffffffffffffffffffffffffffffffffffffffff021916908373ffffffffffffffffffffffffffffffffffffffff1602179055508073ffffffffffffffffffffffffffffffffffffffff16600073ffffffffffffffffffffffffffffffffffffffff167f8be0079c531659141344cd1fd0a4f28419497f9722a3daafe3b4186f6b6457e060405160405180910390a35060008060146101000a81548160ff0219169083151502179055508473ffffffffffffffffffffffffffffffffffffffff1660808173ffffffffffffffffffffffffffffffffffffffff1660601b815250508373ffffffffffffffffffffffffffffffffffffffff1660a08173ffffffffffffffffffffffffffffffffffffffff1660601b815250508273ffffffffffffffffffffffffffffffffffffffff1660c08173ffffffffffffffffffffffffffffffffffffffff1660601b8152505081600460006101000a81548173ffffffffffffffffffffffffffffffffffffffff021916908373ffffffffffffffffffffffffffffffffffffffff16021790555080600560006101000a81548173ffffffffffffffffffffffffffffffffffffffff021916908373ffffffffffffffffffffffffffffffffffffffff160217905550620002c9837fffffffffffffffffffffffffffffffffffffffffffffffffffffffffffffffff8773ffffffffffffffffffffffffffffffffffffffff16620002dc60201b62002f33179092919060201c565b50505050506200086e565b600033905090565b6000811480620003ae575060008373ffffffffffffffffffffffffffffffffffffffff1663dd62ed3e30856040518363ffffffff1660e01b8152600401808373ffffffffffffffffffffffffffffffffffffffff1681526020018273ffffffffffffffffffffffffffffffffffffffff1681526020019250505060206040518083038186803b1580156200036f57600080fd5b505afa15801562000384573d6000803e3d6000fd5b505050506040513d60208110156200039b57600080fd5b8101908080519060200190929190505050145b62000405576040517f08c379a0000000000000000000000000000000000000000000000000000000008152600401808060200182810382526036815260200180620045f56036913960400191505060405180910390fd5b620004aa8363095ea7b360e01b8484604051602401808373ffffffffffffffffffffffffffffffffffffffff16815260200182815260200192505050604051602081830303815290604052907bffffffffffffffffffffffffffffffffffffffffffffffffffffffff19166020820180517bffffffffffffffffffffffffffffffffffffffffffffffffffffffff8381831617835250505050620004af60201b60201c565b505050565b606062000518826040518060400160405280602081526020017f5361666545524332303a206c6f772d6c6576656c2063616c6c206661696c65648152508573ffffffffffffffffffffffffffffffffffffffff16620005a960201b620030f8179092919060201c565b9050600081511115620005a4578080602001905160208110156200053b57600080fd5b8101908080519060200190929190505050620005a3576040517f08c379a000000000000000000000000000000000000000000000000000000000815260040180806020018281038252602a815260200180620045cb602a913960400191505060405180910390fd5b5b505050565b6060620005c08484600085620005c960201b60201c565b90509392505050565b60608247101562000626576040517f08c379a0000000000000000000000000000000000000000000000000000000008152600401808060200182810382526026815260200180620045a56026913960400191505060405180910390fd5b62000637856200078960201b60201c565b620006aa576040517f08c379a000000000000000000000000000000000000000000000000000000000815260040180806020018281038252601d8152602001807f416464726573733a2063616c6c20746f206e6f6e2d636f6e747261637400000081525060200191505060405180910390fd5b600060608673ffffffffffffffffffffffffffffffffffffffff1685876040518082805190602001908083835b60208310620006fc5780518252602082019150602081019050602083039250620006d7565b6001836020036101000a03801982511681845116808217855250505050505090500191505060006040518083038185875af1925050503d806000811462000760576040519150601f19603f3d011682016040523d82523d6000602084013e62000765565b606091505b50915091506200077d8282866200079c60201b60201c565b92505050949350505050565b600080823b905060008111915050919050565b60608315620007ae5782905062000867565b600083511115620007c25782518084602001fd5b816040517f08c379a00000000000000000000000000000000000000000000000000000000081526004018080602001828103825283818151815260200191508051906020019080838360005b838110156200082b5780820151818401526020810190506200080e565b50505050905090810190601f168015620008595780820380516001836020036101000a031916815260200191505b509250505060405180910390fd5b9392505050565b60805160601c60a05160601c60c05160601c613cb1620008f460003980610d9e528061135752806116375280611b9152806120ad528061279f5280612eed52806134e05250806129955280612b1b525080610ee25280610fa4528061144352806114bb528061156d5280611c6c528061251852806128f05280612f115250613cb16000f3fe608060405234801561001057600080fd5b506004361061023d5760003560e01c8063853828b61161013b578063db2e21bc116100b8578063f0f442601161007c578063f0f4426014610705578063f2fde38b14610749578063f851a4401461078d578063fb1db278146107c1578063fc0c546a146107f55761023d565b8063db2e21bc14610647578063def68a9c14610651578063df10b4e614610695578063e941fa78146106b3578063ec78e832146106d15761023d565b8063b60f0531116100ff578063b60f053114610591578063b6ac642a146105af578063b6b55f25146105dd578063bdca91651461060b578063d4b0de2f146106295761023d565b8063853828b6146104f957806387788782146105035780638da5cb5b1461052157806390321e1a146105555780639d72596b146105735761023d565b806348a0d754116101c957806370897b231161018d57806370897b231461047b578063715018a6146104a9578063722713f7146104b357806377c7b8fc146104d15780638456cb59146104ef5761023d565b806348a0d754146103a757806358ebceb6146103c55780635c975abb146103e357806361d027b314610403578063704b6c02146104375761023d565b80632cfc5f01116102105780632cfc5f01146103295780632e1a7d4d146103475780633a98ef39146103755780633f4ba83a146103935780634641257d1461039d5761023d565b80631959a002146102425780631efac1b8146102af57806326465826146102dd5780632ad5a53f1461030b575b600080fd5b6102846004803603602081101561025857600080fd5b81019080803573ffffffffffffffffffffffffffffffffffffffff169060200190929190505050610829565b6040518085815260200184815260200183815260200182815260200194505050505060405180910390f35b6102db600480360360208110156102c557600080fd5b8101908080359060200190929190505050610859565b005b610309600480360360208110156102f357600080fd5b8101908080359060200190929190505050610982565b005b610313610aa9565b6040518082815260200191505060405180910390f35b610331610aae565b6040518082815260200191505060405180910390f35b6103736004803603602081101561035d57600080fd5b8101908080359060200190929190505050610ab5565b005b61037d611044565b6040518082815260200191505060405180910390f35b61039b61104a565b005b6103a56111bd565b005b6103af611569565b6040518082815260200191505060405180910390f35b6103cd611632565b6040518082815260200191505060405180910390f35b6103eb611725565b60405180821515815260200191505060405180910390f35b61040b61173b565b604051808273ffffffffffffffffffffffffffffffffffffffff16815260200191505060405180910390f35b6104796004803603602081101561044d57600080fd5b81019080803573ffffffffffffffffffffffffffffffffffffffff169060200190929190505050611761565b005b6104a76004803603602081101561049157600080fd5b81019080803590602001909291905050506118f7565b005b6104b1611a1f565b005b6104bb611b8c565b6040518082815260200191505060405180910390f35b6104d9611d40565b6040518082815260200191505060405180910390f35b6104f7611d95565b005b610501611f09565b005b61050b612073565b6040518082815260200191505060405180910390f35b610529612079565b604051808273ffffffffffffffffffffffffffffffffffffffff16815260200191505060405180910390f35b61055d6120a2565b6040518082815260200191505060405180910390f35b61057b6120a8565b6040518082815260200191505060405180910390f35b6105996121c9565b6040518082815260200191505060405180910390f35b6105db600480360360208110156105c557600080fd5b81019080803590602001909291905050506121cf565b005b610609600480360360208110156105f357600080fd5b81019080803590602001909291905050506122f6565b005b6106136126cf565b6040518082815260200191505060405180910390f35b6106316126d5565b6040518082815260200191505060405180910390f35b61064f6126da565b005b6106936004803603602081101561066757600080fd5b81019080803573ffffffffffffffffffffffffffffffffffffffff16906020019092919050505061282b565b005b61069d612b0d565b6040518082815260200191505060405180910390f35b6106bb612b13565b6040518082815260200191505060405180910390f35b6106d9612b19565b604051808273ffffffffffffffffffffffffffffffffffffffff16815260200191505060405180910390f35b6107476004803603602081101561071b57600080fd5b81019080803573ffffffffffffffffffffffffffffffffffffffff169060200190929190505050612b3d565b005b61078b6004803603602081101561075f57600080fd5b81019080803573ffffffffffffffffffffffffffffffffffffffff169060200190929190505050612cd3565b005b610795612ec5565b604051808273ffffffffffffffffffffffffffffffffffffffff16815260200191505060405180910390f35b6107c9612eeb565b604051808273ffffffffffffffffffffffffffffffffffffffff16815260200191505060405180910390f35b6107fd612f0f565b604051808273ffffffffffffffffffffffffffffffffffffffff16815260200191505060405180910390f35b60016020528060005260406000206000915090508060000154908060010154908060020154908060030154905084565b600460009054906101000a900473ffffffffffffffffffffffffffffffffffffffff1673ffffffffffffffffffffffffffffffffffffffff163373ffffffffffffffffffffffffffffffffffffffff161461091c576040517f08c379a000000000000000000000000000000000000000000000000000000000815260040180806020018281038252600b8152602001807f61646d696e3a207775743f00000000000000000000000000000000000000000081525060200191505060405180910390fd5b6203f480811115610978576040517f08c379a000000000000000000000000000000000000000000000000000000000815260040180806020018281038252603d815260200180613baf603d913960400191505060405180910390fd5b8060098190555050565b600460009054906101000a900473ffffffffffffffffffffffffffffffffffffffff1673ffffffffffffffffffffffffffffffffffffffff163373ffffffffffffffffffffffffffffffffffffffff1614610a45576040517f08c379a000000000000000000000000000000000000000000000000000000000815260040180806020018281038252600b8152602001807f61646d696e3a207775743f00000000000000000000000000000000000000000081525060200191505060405180910390fd5b6064811115610a9f576040517f08c379a0000000000000000000000000000000000000000000000000000000008152600401808060200182810382526028815260200180613b306028913960400191505060405180910390fd5b8060078190555050565b606481565b6203f48081565b610abe33613110565b15610b31576040517f08c379a00000000000000000000000000000000000000000000000000000000081526004018080602001828103825260148152602001807f636f6e7472616374206e6f7420616c6c6f77656400000000000000000000000081525060200191505060405180910390fd5b3273ffffffffffffffffffffffffffffffffffffffff163373ffffffffffffffffffffffffffffffffffffffff1614610bd2576040517f08c379a000000000000000000000000000000000000000000000000000000000815260040180806020018281038252601a8152602001807f70726f787920636f6e7472616374206e6f7420616c6c6f77656400000000000081525060200191505060405180910390fd5b6000600160003373ffffffffffffffffffffffffffffffffffffffff1673ffffffffffffffffffffffffffffffffffffffff168152602001908152602001600020905060008211610c8b576040517f08c379a00000000000000000000000000000000000000000000000000000000081526004018080602001828103825260138152602001807f4e6f7468696e6720746f2077697468647261770000000000000000000000000081525060200191505060405180910390fd5b8060000154821115610d05576040517f08c379a000000000000000000000000000000000000000000000000000000000815260040180806020018281038252601f8152602001807f576974686472617720616d6f756e7420657863656564732062616c616e63650081525060200191505060405180910390fd5b6000610d35600254610d2785610d19611b8c565b61312390919063ffffffff16565b6131a990919063ffffffff16565b9050610d4e83836000015461323290919063ffffffff16565b8260000181905550610d6b8360025461323290919063ffffffff16565b6002819055506000610d7b611569565b905081811015610e6c576000610d9a828461323290919063ffffffff16565b90507f000000000000000000000000000000000000000000000000000000000000000073ffffffffffffffffffffffffffffffffffffffff16631058d281826040518263ffffffff1660e01b815260040180828152602001915050600060405180830381600087803b158015610e0f57600080fd5b505af1158015610e23573d6000803e3d6000fd5b505050506000610e31611569565b90506000610e48848361323290919063ffffffff16565b905082811015610e6857610e6581856132b590919063ffffffff16565b94505b5050505b610e8560095484600101546132b590919063ffffffff16565b421015610f3d576000610eb7612710610ea96008548661312390919063ffffffff16565b6131a990919063ffffffff16565b9050610f26600560009054906101000a900473ffffffffffffffffffffffffffffffffffffffff16827f000000000000000000000000000000000000000000000000000000000000000073ffffffffffffffffffffffffffffffffffffffff1661333d9092919063ffffffff16565b610f39818461323290919063ffffffff16565b9250505b600083600001541115610f8957610f7c600254610f6e610f5b611b8c565b866000015461312390919063ffffffff16565b6131a990919063ffffffff16565b8360020181905550610f94565b600083600201819055505b428360030181905550610fe833837f000000000000000000000000000000000000000000000000000000000000000073ffffffffffffffffffffffffffffffffffffffff1661333d9092919063ffffffff16565b3373ffffffffffffffffffffffffffffffffffffffff167ff279e6a1f5e320cca91135676d9cb6e44ca8a08c0b88342bcdb1144f6511b5688386604051808381526020018281526020019250505060405180910390a250505050565b60025481565b600460009054906101000a900473ffffffffffffffffffffffffffffffffffffffff1673ffffffffffffffffffffffffffffffffffffffff163373ffffffffffffffffffffffffffffffffffffffff161461110d576040517f08c379a000000000000000000000000000000000000000000000000000000000815260040180806020018281038252600b8152602001807f61646d696e3a207775743f00000000000000000000000000000000000000000081525060200191505060405180910390fd5b611115611725565b611187576040517f08c379a00000000000000000000000000000000000000000000000000000000081526004018080602001828103825260148152602001807f5061757361626c653a206e6f742070617573656400000000000000000000000081525060200191505060405180910390fd5b61118f6133df565b7f7805862f689e2f13df9f062ff482ad3ad112aca9e0847911ed832e158c525b3360405160405180910390a1565b6111c633613110565b15611239576040517f08c379a00000000000000000000000000000000000000000000000000000000081526004018080602001828103825260148152602001807f636f6e7472616374206e6f7420616c6c6f77656400000000000000000000000081525060200191505060405180910390fd5b3273ffffffffffffffffffffffffffffffffffffffff163373ffffffffffffffffffffffffffffffffffffffff16146112da576040517f08c379a000000000000000000000000000000000000000000000000000000000815260040180806020018281038252601a8152602001807f70726f787920636f6e7472616374206e6f7420616c6c6f77656400000000000081525060200191505060405180910390fd5b6112e2611725565b15611355576040517f08c379a00000000000000000000000000000000000000000000000000000000081526004018080602001828103825260108152602001807f5061757361626c653a207061757365640000000000000000000000000000000081525060200191505060405180910390fd5b7f000000000000000000000000000000000000000000000000000000000000000073ffffffffffffffffffffffffffffffffffffffff16631058d28160006040518263ffffffff1660e01b815260040180828152602001915050600060405180830381600087803b1580156113c957600080fd5b505af11580156113dd573d6000803e3d6000fd5b5050505060006113eb611569565b9050600061141861271061140a6006548561312390919063ffffffff16565b6131a990919063ffffffff16565b9050611487600560009054906101000a900473ffffffffffffffffffffffffffffffffffffffff16827f000000000000000000000000000000000000000000000000000000000000000073ffffffffffffffffffffffffffffffffffffffff1661333d9092919063ffffffff16565b60006114b26127106114a46007548661312390919063ffffffff16565b6131a990919063ffffffff16565b90506114ff33827f000000000000000000000000000000000000000000000000000000000000000073ffffffffffffffffffffffffffffffffffffffff1661333d9092919063ffffffff16565b6115076134c9565b426003819055503373ffffffffffffffffffffffffffffffffffffffff167f71bab65ced2e5750775a0613be067df48ef06cf92a496ebf7663ae06609249548383604051808381526020018281526020019250505060405180910390a2505050565b60007f000000000000000000000000000000000000000000000000000000000000000073ffffffffffffffffffffffffffffffffffffffff166370a08231306040518263ffffffff1660e01b8152600401808273ffffffffffffffffffffffffffffffffffffffff16815260200191505060206040518083038186803b1580156115f257600080fd5b505afa158015611606573d6000803e3d6000fd5b505050506040513d602081101561161c57600080fd5b8101908080519060200190929190505050905090565b6000807f000000000000000000000000000000000000000000000000000000000000000073ffffffffffffffffffffffffffffffffffffffff16631175a1dd6000306040518363ffffffff1660e01b8152600401808381526020018273ffffffffffffffffffffffffffffffffffffffff1681526020019250505060206040518083038186803b1580156116c557600080fd5b505afa1580156116d9573d6000803e3d6000fd5b505050506040513d60208110156116ef57600080fd5b8101908080519060200190929190505050905061171c61170d611569565b826132b590919063ffffffff16565b90508091505090565b60008060149054906101000a900460ff16905090565b600560009054906101000a900473ffffffffffffffffffffffffffffffffffffffff1681565b61176961356d565b73ffffffffffffffffffffffffffffffffffffffff16611787612079565b73ffffffffffffffffffffffffffffffffffffffff1614611810576040517f08c379a00000000000000000000000000000000000000000000000000000000081526004018080602001828103825260208152602001807f4f776e61626c653a2063616c6c6572206973206e6f7420746865206f776e657281525060200191505060405180910390fd5b600073ffffffffffffffffffffffffffffffffffffffff168173ffffffffffffffffffffffffffffffffffffffff1614156118b3576040517f08c379a00000000000000000000000000000000000000000000000000000000081526004018080602001828103825260168152602001807f43616e6e6f74206265207a65726f20616464726573730000000000000000000081525060200191505060405180910390fd5b80600460006101000a81548173ffffffffffffffffffffffffffffffffffffffff021916908373ffffffffffffffffffffffffffffffffffffffff16021790555050565b600460009054906101000a900473ffffffffffffffffffffffffffffffffffffffff1673ffffffffffffffffffffffffffffffffffffffff163373ffffffffffffffffffffffffffffffffffffffff16146119ba576040517f08c379a000000000000000000000000000000000000000000000000000000000815260040180806020018281038252600b8152602001807f61646d696e3a207775743f00000000000000000000000000000000000000000081525060200191505060405180910390fd5b6101f4811115611a15576040517f08c379a0000000000000000000000000000000000000000000000000000000008152600401808060200182810382526036815260200180613b586036913960400191505060405180910390fd5b8060068190555050565b611a2761356d565b73ffffffffffffffffffffffffffffffffffffffff16611a45612079565b73ffffffffffffffffffffffffffffffffffffffff1614611ace576040517f08c379a00000000000000000000000000000000000000000000000000000000081526004018080602001828103825260208152602001807f4f776e61626c653a2063616c6c6572206973206e6f7420746865206f776e657281525060200191505060405180910390fd5b600073ffffffffffffffffffffffffffffffffffffffff1660008054906101000a900473ffffffffffffffffffffffffffffffffffffffff1673ffffffffffffffffffffffffffffffffffffffff167f8be0079c531659141344cd1fd0a4f28419497f9722a3daafe3b4186f6b6457e060405160405180910390a360008060006101000a81548173ffffffffffffffffffffffffffffffffffffffff021916908373ffffffffffffffffffffffffffffffffffffffff160217905550565b6000807f000000000000000000000000000000000000000000000000000000000000000073ffffffffffffffffffffffffffffffffffffffff166393f1a40b6000306040518363ffffffff1660e01b8152600401808381526020018273ffffffffffffffffffffffffffffffffffffffff16815260200192505050604080518083038186803b158015611c1e57600080fd5b505afa158015611c32573d6000803e3d6000fd5b505050506040513d6040811015611c4857600080fd5b810190808051906020019092919080519060200190929190505050509050611d3a817f000000000000000000000000000000000000000000000000000000000000000073ffffffffffffffffffffffffffffffffffffffff166370a08231306040518263ffffffff1660e01b8152600401808273ffffffffffffffffffffffffffffffffffffffff16815260200191505060206040518083038186803b158015611cf157600080fd5b505afa158015611d05573d6000803e3d6000fd5b505050506040513d6020811015611d1b57600080fd5b81019080805190602001909291905050506132b590919063ffffffff16565b91505090565b60008060025414611d8657611d81600254611d73670de0b6b3a7640000611d65611b8c565b61312390919063ffffffff16565b6131a990919063ffffffff16565b611d90565b670de0b6b3a76400005b905090565b600460009054906101000a900473ffffffffffffffffffffffffffffffffffffffff1673ffffffffffffffffffffffffffffffffffffffff163373ffffffffffffffffffffffffffffffffffffffff1614611e58576040517f08c379a000000000000000000000000000000000000000000000000000000000815260040180806020018281038252600b8152602001807f61646d696e3a207775743f00000000000000000000000000000000000000000081525060200191505060405180910390fd5b611e60611725565b15611ed3576040517f08c379a00000000000000000000000000000000000000000000000000000000081526004018080602001828103825260108152602001807f5061757361626c653a207061757365640000000000000000000000000000000081525060200191505060405180910390fd5b611edb613575565b7f6985a02210a168e66602d3235cb6db0e70f92b3ba4d376a33c0f3d9434bff62560405160405180910390a1565b611f1233613110565b15611f85576040517f08c379a00000000000000000000000000000000000000000000000000000000081526004018080602001828103825260148152602001807f636f6e7472616374206e6f7420616c6c6f77656400000000000000000000000081525060200191505060405180910390fd5b3273ffffffffffffffffffffffffffffffffffffffff163373ffffffffffffffffffffffffffffffffffffffff1614612026576040517f08c379a000000000000000000000000000000000000000000000000000000000815260040180806020018281038252601a8152602001807f70726f787920636f6e7472616374206e6f7420616c6c6f77656400000000000081525060200191505060405180910390fd5b612071600160003373ffffffffffffffffffffffffffffffffffffffff1673ffffffffffffffffffffffffffffffffffffffff16815260200190815260200160002060000154610ab5565b565b60065481565b60008060009054906101000a900473ffffffffffffffffffffffffffffffffffffffff16905090565b60075481565b6000807f000000000000000000000000000000000000000000000000000000000000000073ffffffffffffffffffffffffffffffffffffffff16631175a1dd6000306040518363ffffffff1660e01b8152600401808381526020018273ffffffffffffffffffffffffffffffffffffffff1681526020019250505060206040518083038186803b15801561213b57600080fd5b505afa15801561214f573d6000803e3d6000fd5b505050506040513d602081101561216557600080fd5b81019080805190602001909291905050509050612192612183611569565b826132b590919063ffffffff16565b905060006121bf6127106121b16007548561312390919063ffffffff16565b6131a990919063ffffffff16565b9050809250505090565b60035481565b600460009054906101000a900473ffffffffffffffffffffffffffffffffffffffff1673ffffffffffffffffffffffffffffffffffffffff163373ffffffffffffffffffffffffffffffffffffffff1614612292576040517f08c379a000000000000000000000000000000000000000000000000000000000815260040180806020018281038252600b8152602001807f61646d696e3a207775743f00000000000000000000000000000000000000000081525060200191505060405180910390fd5b60648111156122ec576040517f08c379a0000000000000000000000000000000000000000000000000000000008152600401808060200182810382526030815260200180613c166030913960400191505060405180910390fd5b8060088190555050565b6122fe611725565b15612371576040517f08c379a00000000000000000000000000000000000000000000000000000000081526004018080602001828103825260108152602001807f5061757361626c653a207061757365640000000000000000000000000000000081525060200191505060405180910390fd5b61237a33613110565b156123ed576040517f08c379a00000000000000000000000000000000000000000000000000000000081526004018080602001828103825260148152602001807f636f6e7472616374206e6f7420616c6c6f77656400000000000000000000000081525060200191505060405180910390fd5b3273ffffffffffffffffffffffffffffffffffffffff163373ffffffffffffffffffffffffffffffffffffffff161461248e576040517f08c379a000000000000000000000000000000000000000000000000000000000815260040180806020018281038252601a8152602001807f70726f787920636f6e7472616374206e6f7420616c6c6f77656400000000000081525060200191505060405180910390fd5b60008111612504576040517f08c379a00000000000000000000000000000000000000000000000000000000081526004018080602001828103825260128152602001807f4e6f7468696e6720746f206465706f736974000000000000000000000000000081525060200191505060405180910390fd5b600061250e611b8c565b905061255d3330847f000000000000000000000000000000000000000000000000000000000000000073ffffffffffffffffffffffffffffffffffffffff16613661909392919063ffffffff16565b600080600254146125965761258f826125816002548661312390919063ffffffff16565b6131a990919063ffffffff16565b905061259a565b8290505b6000600160003373ffffffffffffffffffffffffffffffffffffffff1673ffffffffffffffffffffffffffffffffffffffff16815260200190815260200160002090506125f48282600001546132b590919063ffffffff16565b816000018190555042816001018190555061261a826002546132b590919063ffffffff16565b600281905550612652600254612644612631611b8c565b846000015461312390919063ffffffff16565b6131a990919063ffffffff16565b816002018190555042816003018190555061266b6134c9565b3373ffffffffffffffffffffffffffffffffffffffff167f36af321ec8d3c75236829c5317affd40ddb308863a1236d2d277a4025cccee1e85844260405180848152602001838152602001828152602001935050505060405180910390a250505050565b6101f481565b606481565b600460009054906101000a900473ffffffffffffffffffffffffffffffffffffffff1673ffffffffffffffffffffffffffffffffffffffff163373ffffffffffffffffffffffffffffffffffffffff161461279d576040517f08c379a000000000000000000000000000000000000000000000000000000000815260040180806020018281038252600b8152602001807f61646d696e3a207775743f00000000000000000000000000000000000000000081525060200191505060405180910390fd5b7f000000000000000000000000000000000000000000000000000000000000000073ffffffffffffffffffffffffffffffffffffffff16635312ea8e60006040518263ffffffff1660e01b815260040180828152602001915050600060405180830381600087803b15801561281157600080fd5b505af1158015612825573d6000803e3d6000fd5b50505050565b600460009054906101000a900473ffffffffffffffffffffffffffffffffffffffff1673ffffffffffffffffffffffffffffffffffffffff163373ffffffffffffffffffffffffffffffffffffffff16146128ee576040517f08c379a000000000000000000000000000000000000000000000000000000000815260040180806020018281038252600b8152602001807f61646d696e3a207775743f00000000000000000000000000000000000000000081525060200191505060405180910390fd5b7f000000000000000000000000000000000000000000000000000000000000000073ffffffffffffffffffffffffffffffffffffffff168173ffffffffffffffffffffffffffffffffffffffff161415612993576040517f08c379a0000000000000000000000000000000000000000000000000000000008152600401808060200182810382526025815260200180613ac06025913960400191505060405180910390fd5b7f000000000000000000000000000000000000000000000000000000000000000073ffffffffffffffffffffffffffffffffffffffff168173ffffffffffffffffffffffffffffffffffffffff161415612a38576040517f08c379a0000000000000000000000000000000000000000000000000000000008152600401808060200182810382526025815260200180613b0b6025913960400191505060405180910390fd5b60008173ffffffffffffffffffffffffffffffffffffffff166370a08231306040518263ffffffff1660e01b8152600401808273ffffffffffffffffffffffffffffffffffffffff16815260200191505060206040518083038186803b158015612aa157600080fd5b505afa158015612ab5573d6000803e3d6000fd5b505050506040513d6020811015612acb57600080fd5b81019080805190602001909291905050509050612b0933828473ffffffffffffffffffffffffffffffffffffffff1661333d9092919063ffffffff16565b5050565b60095481565b60085481565b7f000000000000000000000000000000000000000000000000000000000000000081565b612b4561356d565b73ffffffffffffffffffffffffffffffffffffffff16612b63612079565b73ffffffffffffffffffffffffffffffffffffffff1614612bec576040517f08c379a00000000000000000000000000000000000000000000000000000000081526004018080602001828103825260208152602001807f4f776e61626c653a2063616c6c6572206973206e6f7420746865206f776e657281525060200191505060405180910390fd5b600073ffffffffffffffffffffffffffffffffffffffff168173ffffffffffffffffffffffffffffffffffffffff161415612c8f576040517f08c379a00000000000000000000000000000000000000000000000000000000081526004018080602001828103825260168152602001807f43616e6e6f74206265207a65726f20616464726573730000000000000000000081525060200191505060405180910390fd5b80600560006101000a81548173ffffffffffffffffffffffffffffffffffffffff021916908373ffffffffffffffffffffffffffffffffffffffff16021790555050565b612cdb61356d565b73ffffffffffffffffffffffffffffffffffffffff16612cf9612079565b73ffffffffffffffffffffffffffffffffffffffff1614612d82576040517f08c379a00000000000000000000000000000000000000000000000000000000081526004018080602001828103825260208152602001807f4f776e61626c653a2063616c6c6572206973206e6f7420746865206f776e657281525060200191505060405180910390fd5b600073ffffffffffffffffffffffffffffffffffffffff168173ffffffffffffffffffffffffffffffffffffffff161415612e08576040517f08c379a0000000000000000000000000000000000000000000000000000000008152600401808060200182810382526026815260200180613a9a6026913960400191505060405180910390fd5b8073ffffffffffffffffffffffffffffffffffffffff1660008054906101000a900473ffffffffffffffffffffffffffffffffffffffff1673ffffffffffffffffffffffffffffffffffffffff167f8be0079c531659141344cd1fd0a4f28419497f9722a3daafe3b4186f6b6457e060405160405180910390a3806000806101000a81548173ffffffffffffffffffffffffffffffffffffffff021916908373ffffffffffffffffffffffffffffffffffffffff16021790555050565b600460009054906101000a900473ffffffffffffffffffffffffffffffffffffffff1681565b7f000000000000000000000000000000000000000000000000000000000000000081565b7f000000000000000000000000000000000000000000000000000000000000000081565b6000811480613001575060008373ffffffffffffffffffffffffffffffffffffffff1663dd62ed3e30856040518363ffffffff1660e01b8152600401808373ffffffffffffffffffffffffffffffffffffffff1681526020018273ffffffffffffffffffffffffffffffffffffffff1681526020019250505060206040518083038186803b158015612fc457600080fd5b505afa158015612fd8573d6000803e3d6000fd5b505050506040513d6020811015612fee57600080fd5b8101908080519060200190929190505050145b613056576040517f08c379a0000000000000000000000000000000000000000000000000000000008152600401808060200182810382526036815260200180613c466036913960400191505060405180910390fd5b6130f38363095ea7b360e01b8484604051602401808373ffffffffffffffffffffffffffffffffffffffff16815260200182815260200192505050604051602081830303815290604052907bffffffffffffffffffffffffffffffffffffffffffffffffffffffff19166020820180517bffffffffffffffffffffffffffffffffffffffffffffffffffffffff8381831617835250505050613722565b505050565b60606131078484600085613811565b90509392505050565b600080823b905060008111915050919050565b60008083141561313657600090506131a3565b600082840290508284828161314757fe5b041461319e576040517f08c379a0000000000000000000000000000000000000000000000000000000008152600401808060200182810382526021815260200180613b8e6021913960400191505060405180910390fd5b809150505b92915050565b6000808211613220576040517f08c379a000000000000000000000000000000000000000000000000000000000815260040180806020018281038252601a8152602001807f536166654d6174683a206469766973696f6e206279207a65726f00000000000081525060200191505060405180910390fd5b81838161322957fe5b04905092915050565b6000828211156132aa576040517f08c379a000000000000000000000000000000000000000000000000000000000815260040180806020018281038252601e8152602001807f536166654d6174683a207375627472616374696f6e206f766572666c6f77000081525060200191505060405180910390fd5b818303905092915050565b600080828401905083811015613333576040517f08c379a000000000000000000000000000000000000000000000000000000000815260040180806020018281038252601b8152602001807f536166654d6174683a206164646974696f6e206f766572666c6f77000000000081525060200191505060405180910390fd5b8091505092915050565b6133da8363a9059cbb60e01b8484604051602401808373ffffffffffffffffffffffffffffffffffffffff16815260200182815260200192505050604051602081830303815290604052907bffffffffffffffffffffffffffffffffffffffffffffffffffffffff19166020820180517bffffffffffffffffffffffffffffffffffffffffffffffffffffffff8381831617835250505050613722565b505050565b6133e7611725565b613459576040517f08c379a00000000000000000000000000000000000000000000000000000000081526004018080602001828103825260148152602001807f5061757361626c653a206e6f742070617573656400000000000000000000000081525060200191505060405180910390fd5b60008060146101000a81548160ff0219169083151502179055507f5db9ee0a495bf2e6ff9c91a7834c1ba4fdd244a5e8aa4e537bd38aeae4b073aa61349c61356d565b604051808273ffffffffffffffffffffffffffffffffffffffff16815260200191505060405180910390a1565b60006134d3611569565b9050600081111561356a577f000000000000000000000000000000000000000000000000000000000000000073ffffffffffffffffffffffffffffffffffffffff166341441d3b826040518263ffffffff1660e01b815260040180828152602001915050600060405180830381600087803b15801561355157600080fd5b505af1158015613565573d6000803e3d6000fd5b505050505b50565b600033905090565b61357d611725565b156135f0576040517f08c379a00000000000000000000000000000000000000000000000000000000081526004018080602001828103825260108152602001807f5061757361626c653a207061757365640000000000000000000000000000000081525060200191505060405180910390fd5b6001600060146101000a81548160ff0219169083151502179055507f62e78cea01bee320cd4e420270b5ea74000d11b0c9f74754ebdbfc544b05a25861363461356d565b604051808273ffffffffffffffffffffffffffffffffffffffff16815260200191505060405180910390a1565b61371c846323b872dd60e01b858585604051602401808473ffffffffffffffffffffffffffffffffffffffff1681526020018373ffffffffffffffffffffffffffffffffffffffff1681526020018281526020019350505050604051602081830303815290604052907bffffffffffffffffffffffffffffffffffffffffffffffffffffffff19166020820180517bffffffffffffffffffffffffffffffffffffffffffffffffffffffff8381831617835250505050613722565b50505050565b6060613784826040518060400160405280602081526020017f5361666545524332303a206c6f772d6c6576656c2063616c6c206661696c65648152508573ffffffffffffffffffffffffffffffffffffffff166130f89092919063ffffffff16565b905060008151111561380c578080602001905160208110156137a557600080fd5b810190808051906020019092919050505061380b576040517f08c379a000000000000000000000000000000000000000000000000000000000815260040180806020018281038252602a815260200180613bec602a913960400191505060405180910390fd5b5b505050565b60608247101561386c576040517f08c379a0000000000000000000000000000000000000000000000000000000008152600401808060200182810382526026815260200180613ae56026913960400191505060405180910390fd5b613875856139ba565b6138e7576040517f08c379a000000000000000000000000000000000000000000000000000000000815260040180806020018281038252601d8152602001807f416464726573733a2063616c6c20746f206e6f6e2d636f6e747261637400000081525060200191505060405180910390fd5b600060608673ffffffffffffffffffffffffffffffffffffffff1685876040518082805190602001908083835b602083106139375780518252602082019150602081019050602083039250613914565b6001836020036101000a03801982511681845116808217855250505050505090500191505060006040518083038185875af1925050503d8060008114613999576040519150601f19603f3d011682016040523d82523d6000602084013e61399e565b606091505b50915091506139ae8282866139cd565b92505050949350505050565b600080823b905060008111915050919050565b606083156139dd57829050613a92565b6000835111156139f05782518084602001fd5b816040517f08c379a00000000000000000000000000000000000000000000000000000000081526004018080602001828103825283818151815260200191508051906020019080838360005b83811015613a57578082015181840152602081019050613a3c565b50505050905090810190601f168015613a845780820380516001836020036101000a031916815260200191505b509250505060405180910390fd5b939250505056fe4f776e61626c653a206e6577206f776e657220697320746865207a65726f2061646472657373546f6b656e2063616e6e6f742062652073616d65206173206465706f73697420746f6b656e416464726573733a20696e73756666696369656e742062616c616e636520666f722063616c6c546f6b656e2063616e6e6f742062652073616d65206173207265636569707420746f6b656e63616c6c4665652063616e6e6f74206265206d6f7265207468616e204d41585f43414c4c5f464545706572666f726d616e63654665652063616e6e6f74206265206d6f7265207468616e204d41585f504552464f524d414e43455f464545536166654d6174683a206d756c7469706c69636174696f6e206f766572666c6f777769746864726177466565506572696f642063616e6e6f74206265206d6f7265207468616e204d41585f57495448445241575f4645455f504552494f445361666545524332303a204552433230206f7065726174696f6e20646964206e6f74207375636365656477697468647261774665652063616e6e6f74206265206d6f7265207468616e204d41585f57495448445241575f4645455361666545524332303a20617070726f76652066726f6d206e6f6e2d7a65726f20746f206e6f6e2d7a65726f20616c6c6f77616e6365a264697066735822122046763ea7938adc8a3c8af81dc71cc9ce7dc5dfebc5c9b9879544fb374a3ccb6764736f6c634300060c0033416464726573733a20696e73756666696369656e742062616c616e636520666f722063616c6c5361666545524332303a204552433230206f7065726174696f6e20646964206e6f7420737563636565645361666545524332303a20617070726f76652066726f6d206e6f6e2d7a65726f20746f206e6f6e2d7a65726f20616c6c6f77616e6365",
  "immutableReferences": {
    "28": [
      {
        "length": 32,
        "start": 3810
      },
      {
        "length": 32,
        "start": 4004
      },
      {
        "length": 32,
        "start": 5187
      },
      {
        "length": 32,
        "start": 5307
      },
      {
        "length": 32,
        "start": 5485
      },
      {
        "length": 32,
        "start": 7276
      },
      {
        "length": 32,
        "start": 9496
      },
      {
        "length": 32,
        "start": 10480
      },
      {
        "length": 32,
        "start": 12049
      }
    ],
    "30": [
      {
        "length": 32,
        "start": 10645
      },
      {
        "length": 32,
        "start": 11035
      }
    ],
    "32": [
      {
        "length": 32,
        "start": 3486
      },
      {
        "length": 32,
        "start": 4951
      },
      {
        "length": 32,
        "start": 5687
      },
      {
        "length": 32,
        "start": 7057
      },
      {
        "length": 32,
        "start": 8365
      },
      {
        "length": 32,
        "start": 10143
      },
      {
        "length": 32,
        "start": 12013
      },
      {
        "length": 32,
        "start": 13536
      }
    ]
  },
  "source": "pragma solidity 0.6.12;\n\nimport '@openzeppelin/contracts/utils/Pausable.sol';\nimport '@openzeppelin/contracts/access/Ownable.sol';\nimport '@openzeppelin/contracts/token/ERC20/SafeERC20.sol';\nimport '@openzeppelin/contracts/math/SafeMath.sol';\nimport '@openzeppelin/contracts/token/ERC20/IERC20.sol';\nimport './interfaces/IMasterChef.sol';\n\ncontract CakeVault is Ownable, Pausable {\n    using SafeERC20 for IERC20;\n    using SafeMath for uint256;\n\n    struct UserInfo {\n        uint256 shares; // number of shares for a user\n        uint256 lastDepositedTime; // keeps track of deposited time for potential penalty\n        uint256 cakeAtLastUserAction; // keeps track of cake deposited at the last user action\n        uint256 lastUserActionTime; // keeps track of the last user action time\n    }\n\n    IERC20 public immutable token; // Cake token\n    IERC20 public immutable receiptToken; // Syrup token\n\n    IMasterChef public immutable masterchef;\n\n    mapping(address => UserInfo) public userInfo;\n\n    uint256 public totalShares;\n    uint256 public lastHarvestedTime;\n    address public admin;\n    address public treasury;\n\n    uint256 public constant MAX_PERFORMANCE_FEE = 500; // 5%\n    uint256 public constant MAX_CALL_FEE = 100; // 1%\n    uint256 public constant MAX_WITHDRAW_FEE = 100; // 1%\n    uint256 public constant MAX_WITHDRAW_FEE_PERIOD = 72 hours; // 3 days\n\n    uint256 public performanceFee = 200; // 2%\n    uint256 public callFee = 25; // 0.25%\n    uint256 public withdrawFee = 10; // 0.1%\n    uint256 public withdrawFeePeriod = 72 hours; // 3 days\n\n    event Deposit(address indexed sender, uint256 amount, uint256 shares, uint256 lastDepositedTime);\n    event Withdraw(address indexed sender, uint256 amount, uint256 shares);\n    event Harvest(address indexed sender, uint256 performanceFee, uint256 callFee);\n    event Pause();\n    event Unpause();\n\n    /**\n     * @notice Constructor\n     * @param _token: Cake token contract\n     * @param _receiptToken: Syrup token contract\n     * @param _masterchef: MasterChef contract\n     * @param _admin: address of the admin\n     * @param _treasury: address of the treasury (collects fees)\n     */\n    constructor(\n        IERC20 _token,\n        IERC20 _receiptToken,\n        IMasterChef _masterchef,\n        address _admin,\n        address _treasury\n    ) public {\n        token = _token;\n        receiptToken = _receiptToken;\n        masterchef = _masterchef;\n        admin = _admin;\n        treasury = _treasury;\n\n        // Infinite approve\n        IERC20(_token).safeApprove(address(_masterchef), uint256(-1));\n    }\n\n    /**\n     * @notice Checks if the msg.sender is the admin address\n     */\n    modifier onlyAdmin() {\n        require(msg.sender == admin, \"admin: wut?\");\n        _;\n    }\n\n    /**\n     * @notice Checks if the msg.sender is a contract or a proxy\n     */\n    modifier notContract() {\n        require(!_isContract(msg.sender), \"contract not allowed\");\n        require(msg.sender == tx.origin, \"proxy contract not allowed\");\n        _;\n    }\n\n    /**\n     * @notice Deposits funds into the Cake Vault\n     * @dev Only possible when contract not paused.\n     * @param _amount: number of tokens to deposit (in CAKE)\n     */\n    function deposit(uint256 _amount) external whenNotPaused notContract {\n        require(_amount > 0, \"Nothing to deposit\");\n\n        uint256 pool = balanceOf();\n        token.safeTransferFrom(msg.sender, address(this), _amount);\n        uint256 currentShares = 0;\n        if (totalShares != 0) {\n            currentShares = (_amount.mul(totalShares)).div(pool);\n        } else {\n            currentShares = _amount;\n        }\n        UserInfo storage user = userInfo[msg.sender];\n\n        user.shares = user.shares.add(currentShares);\n        user.lastDepositedTime = block.timestamp;\n\n        totalShares = totalShares.add(currentShares);\n\n        user.cakeAtLastUserAction = user.shares.mul(balanceOf()).div(totalShares);\n        user.lastUserActionTime = block.timestamp;\n\n        _earn();\n\n        emit Deposit(msg.sender, _amount, currentShares, block.timestamp);\n    }\n\n    /**\n     * @notice Withdraws all funds for a user\n     */\n    function withdrawAll() external notContract {\n        withdraw(userInfo[msg.sender].shares);\n    }\n\n    /**\n     * @notice Reinvests CAKE tokens into MasterChef\n     * @dev Only possible when contract not paused.\n     */\n    function harvest() external notContract whenNotPaused {\n        IMasterChef(masterchef).leaveStaking(0);\n\n        uint256 bal = available();\n        uint256 currentPerformanceFee = bal.mul(performanceFee).div(10000);\n        token.safeTransfer(treasury, currentPerformanceFee);\n\n        uint256 currentCallFee = bal.mul(callFee).div(10000);\n        token.safeTransfer(msg.sender, currentCallFee);\n\n        _earn();\n\n        lastHarvestedTime = block.timestamp;\n\n        emit Harvest(msg.sender, currentPerformanceFee, currentCallFee);\n    }\n\n    /**\n     * @notice Sets admin address\n     * @dev Only callable by the contract owner.\n     */\n    function setAdmin(address _admin) external onlyOwner {\n        require(_admin != address(0), \"Cannot be zero address\");\n        admin = _admin;\n    }\n\n    /**\n     * @notice Sets treasury address\n     * @dev Only callable by the contract owner.\n     */\n    function setTreasury(address _treasury) external onlyOwner {\n        require(_treasury != address(0), \"Cannot be zero address\");\n        treasury = _treasury;\n    }\n\n    /**\n     * @notice Sets performance fee\n     * @dev Only callable by the contract admin.\n     */\n    function setPerformanceFee(uint256 _performanceFee) external onlyAdmin {\n        require(_performanceFee <= MAX_PERFORMANCE_FEE, \"performanceFee cannot be more than MAX_PERFORMANCE_FEE\");\n        performanceFee = _performanceFee;\n    }\n\n    /**\n     * @notice Sets call fee\n     * @dev Only callable by the contract admin.\n     */\n    function setCallFee(uint256 _callFee) external onlyAdmin {\n        require(_callFee <= MAX_CALL_FEE, \"callFee cannot be more than MAX_CALL_FEE\");\n        callFee = _callFee;\n    }\n\n    /**\n     * @notice Sets withdraw fee\n     * @dev Only callable by the contract admin.\n     */\n    function setWithdrawFee(uint256 _withdrawFee) external onlyAdmin {\n        require(_withdrawFee <= MAX_WITHDRAW_FEE, \"withdrawFee cannot be more than MAX_WITHDRAW_FEE\");\n        withdrawFee = _withdrawFee;\n    }\n\n    /**\n     * @notice Sets withdraw fee period\n     * @dev Only callable by the contract admin.\n     */\n    function setWithdrawFeePeriod(uint256 _withdrawFeePeriod) external onlyAdmin {\n        require(\n            _withdrawFeePeriod <= MAX_WITHDRAW_FEE_PERIOD,\n            \"withdrawFeePeriod cannot be more than MAX_WITHDRAW_FEE_PERIOD\"\n        );\n        withdrawFeePeriod = _withdrawFeePeriod;\n    }\n\n    /**\n     * @notice Withdraws from MasterChef to Vault without caring about rewards.\n     * @dev EMERGENCY ONLY. Only callable by the contract admin.\n     */\n    function emergencyWithdraw() external onlyAdmin {\n        IMasterChef(masterchef).emergencyWithdraw(0);\n    }\n\n    /**\n     * @notice Withdraw unexpected tokens sent to the Cake Vault\n     */\n    function inCaseTokensGetStuck(address _token) external onlyAdmin {\n        require(_token != address(token), \"Token cannot be same as deposit token\");\n        require(_token != address(receiptToken), \"Token cannot be same as receipt token\");\n\n        uint256 amount = IERC20(_token).balanceOf(address(this));\n        IERC20(_token).safeTransfer(msg.sender, amount);\n    }\n\n    /**\n     * @notice Triggers stopped state\n     * @dev Only possible when contract not paused.\n     */\n    function pause() external onlyAdmin whenNotPaused {\n        _pause();\n        emit Pause();\n    }\n\n    /**\n     * @notice Returns to normal state\n     * @dev Only possible when contract is paused.\n     */\n    function unpause() external onlyAdmin whenPaused {\n        _unpause();\n        emit Unpause();\n    }\n\n    /**\n     * @notice Calculates the expected harvest reward from third party\n     * @return Expected reward to collect in CAKE\n     */\n    function calculateHarvestCakeRewards() external view returns (uint256) {\n        uint256 amount = IMasterChef(masterchef).pendingCake(0, address(this));\n        amount = amount.add(available());\n        uint256 currentCallFee = amount.mul(callFee).div(10000);\n\n        return currentCallFee;\n    }\n\n    /**\n     * @notice Calculates the total pending rewards that can be restaked\n     * @return Returns total pending cake rewards\n     */\n    function calculateTotalPendingCakeRewards() external view returns (uint256) {\n        uint256 amount = IMasterChef(masterchef).pendingCake(0, address(this));\n        amount = amount.add(available());\n\n        return amount;\n    }\n\n    /**\n     * @notice Calculates the price per share\n     */\n    function getPricePerFullShare() external view returns (uint256) {\n        return totalShares == 0 ? 1e18 : balanceOf().mul(1e18).div(totalShares);\n    }\n\n    /**\n     * @notice Withdraws from funds from the Cake Vault\n     * @param _shares: Number of shares to withdraw\n     */\n    function withdraw(uint256 _shares) public notContract {\n        UserInfo storage user = userInfo[msg.sender];\n        require(_shares > 0, \"Nothing to withdraw\");\n        require(_shares <= user.shares, \"Withdraw amount exceeds balance\");\n\n        uint256 currentAmount = (balanceOf().mul(_shares)).div(totalShares);\n        user.shares = user.shares.sub(_shares);\n        totalShares = totalShares.sub(_shares);\n\n        uint256 bal = available();\n        if (bal < currentAmount) {\n            uint256 balWithdraw = currentAmount.sub(bal);\n            IMasterChef(masterchef).leaveStaking(balWithdraw);\n            uint256 balAfter = available();\n            uint256 diff = balAfter.sub(bal);\n            if (diff < balWithdraw) {\n                currentAmount = bal.add(diff);\n            }\n        }\n\n        if (block.timestamp < user.lastDepositedTime.add(withdrawFeePeriod)) {\n            uint256 currentWithdrawFee = currentAmount.mul(withdrawFee).div(10000);\n            token.safeTransfer(treasury, currentWithdrawFee);\n            currentAmount = currentAmount.sub(currentWithdrawFee);\n        }\n\n        if (user.shares > 0) {\n            user.cakeAtLastUserAction = user.shares.mul(balanceOf()).div(totalShares);\n        } else {\n            user.cakeAtLastUserAction = 0;\n        }\n\n        user.lastUserActionTime = block.timestamp;\n\n        token.safeTransfer(msg.sender, currentAmount);\n\n        emit Withdraw(msg.sender, currentAmount, _shares);\n    }\n\n    /**\n     * @notice Custom logic for how much the vault allows to be borrowed\n     * @dev The contract puts 100% of the tokens to work.\n     */\n    function available() public view returns (uint256) {\n        return token.balanceOf(address(this));\n    }\n\n    /**\n     * @notice Calculates the total underlying tokens\n     * @dev It includes tokens held by the contract and held in MasterChef\n     */\n    function balanceOf() public view returns (uint256) {\n        (uint256 amount, ) = IMasterChef(masterchef).userInfo(0, address(this));\n        return token.balanceOf(address(this)).add(amount);\n    }\n\n    /**\n     * @notice Deposits tokens into MasterChef to earn staking rewards\n     */\n    function _earn() internal {\n        uint256 bal = available();\n        if (bal > 0) {\n            IMasterChef(masterchef).enterStaking(bal);\n        }\n    }\n\n    /**\n     * @notice Checks if address is a contract\n     * @dev It prevents contract from being targetted\n     */\n    function _isContract(address addr) internal view returns (bool) {\n        uint256 size;\n        assembly {\n            size := extcodesize(addr)\n        }\n        return size > 0;\n    }\n}",
  "sourcePath": "/home/ubuntu/work/demoswap-project/demoswap/pancake-pool/contracts/CakeVault.sol",
  "compiler": {
    "name": "solc",
    "version": "0.6.12+commit.27d51765.Emscripten.clang"
  },
  "schemaVersion": "3.3.3",
  "updatedAt": "2021-10-21T19:19:36.607Z",
  "networkType": "ethereum",
  "devdoc": {
    "kind": "dev",
    "methods": {
      "available()": {
        "details": "The contract puts 100% of the tokens to work."
      },
      "balanceOf()": {
        "details": "It includes tokens held by the contract and held in MasterChef"
      },
      "calculateHarvestCakeRewards()": {
        "returns": {
          "_0": "Expected reward to collect in CAKE"
        }
      },
      "calculateTotalPendingCakeRewards()": {
        "returns": {
          "_0": "Returns total pending cake rewards"
        }
      },
      "constructor": {
        "params": {
          "_admin": ": address of the admin",
          "_masterchef": ": MasterChef contract",
          "_receiptToken": ": Syrup token contract",
          "_token": ": Cake token contract",
          "_treasury": ": address of the treasury (collects fees)"
        }
      },
      "deposit(uint256)": {
        "details": "Only possible when contract not paused.",
        "params": {
          "_amount": ": number of tokens to deposit (in CAKE)"
        }
      },
      "emergencyWithdraw()": {
        "details": "EMERGENCY ONLY. Only callable by the contract admin."
      },
      "harvest()": {
        "details": "Only possible when contract not paused."
      },
      "owner()": {
        "details": "Returns the address of the current owner."
      },
      "pause()": {
        "details": "Only possible when contract not paused."
      },
      "paused()": {
        "details": "Returns true if the contract is paused, and false otherwise."
      },
      "renounceOwnership()": {
        "details": "Leaves the contract without owner. It will not be possible to call `onlyOwner` functions anymore. Can only be called by the current owner. NOTE: Renouncing ownership will leave the contract without an owner, thereby removing any functionality that is only available to the owner."
      },
      "setAdmin(address)": {
        "details": "Only callable by the contract owner."
      },
      "setCallFee(uint256)": {
        "details": "Only callable by the contract admin."
      },
      "setPerformanceFee(uint256)": {
        "details": "Only callable by the contract admin."
      },
      "setTreasury(address)": {
        "details": "Only callable by the contract owner."
      },
      "setWithdrawFee(uint256)": {
        "details": "Only callable by the contract admin."
      },
      "setWithdrawFeePeriod(uint256)": {
        "details": "Only callable by the contract admin."
      },
      "transferOwnership(address)": {
        "details": "Transfers ownership of the contract to a new account (`newOwner`). Can only be called by the current owner."
      },
      "unpause()": {
        "details": "Only possible when contract is paused."
      },
      "withdraw(uint256)": {
        "params": {
          "_shares": ": Number of shares to withdraw"
        }
      }
    },
    "version": 1
  },
  "userdoc": {
    "kind": "user",
    "methods": {
      "available()": {
        "notice": "Custom logic for how much the vault allows to be borrowed"
      },
      "balanceOf()": {
        "notice": "Calculates the total underlying tokens"
      },
      "calculateHarvestCakeRewards()": {
        "notice": "Calculates the expected harvest reward from third party"
      },
      "calculateTotalPendingCakeRewards()": {
        "notice": "Calculates the total pending rewards that can be restaked"
      },
      "constructor": "Constructor",
      "deposit(uint256)": {
        "notice": "Deposits funds into the Cake Vault"
      },
      "emergencyWithdraw()": {
        "notice": "Withdraws from MasterChef to Vault without caring about rewards."
      },
      "getPricePerFullShare()": {
        "notice": "Calculates the price per share"
      },
      "harvest()": {
        "notice": "Reinvests CAKE tokens into MasterChef"
      },
      "inCaseTokensGetStuck(address)": {
        "notice": "Withdraw unexpected tokens sent to the Cake Vault"
      },
      "pause()": {
        "notice": "Triggers stopped state"
      },
      "setAdmin(address)": {
        "notice": "Sets admin address"
      },
      "setCallFee(uint256)": {
        "notice": "Sets call fee"
      },
      "setPerformanceFee(uint256)": {
        "notice": "Sets performance fee"
      },
      "setTreasury(address)": {
        "notice": "Sets treasury address"
      },
      "setWithdrawFee(uint256)": {
        "notice": "Sets withdraw fee"
      },
      "setWithdrawFeePeriod(uint256)": {
        "notice": "Sets withdraw fee period"
      },
      "unpause()": {
        "notice": "Returns to normal state"
      },
      "withdraw(uint256)": {
        "notice": "Withdraws from funds from the Cake Vault"
      },
      "withdrawAll()": {
        "notice": "Withdraws all funds for a user"
      }
    },
    "version": 1
  }
}