{
  "contractName": "SmartChefFactory",
  "abi": [
    {
      "inputs": [],
      "stateMutability": "nonpayable",
      "type": "constructor"
    },
    {
      "anonymous": false,
      "inputs": [
        {
          "indexed": true,
          "internalType": "address",
          "name": "smartChef",
          "type": "address"
        }
      ],
      "name": "NewSmartChefContract",
      "type": "event"
    },
    {
      "anonymous": false,
      "inputs": [
        {
          "indexed": true,
          "internalType": "address",
          "name": "previousOwner",
          "type": "address"
        },
        {
          "indexed": true,
          "internalType": "address",
          "name": "newOwner",
          "type": "address"
        }
      ],
      "name": "OwnershipTransferred",
      "type": "event"
    },
    {
      "inputs": [],
      "name": "owner",
      "outputs": [
        {
          "internalType": "address",
          "name": "",
          "type": "address"
        }
      ],
      "stateMutability": "view",
      "type": "function"
    },
    {
      "inputs": [],
      "name": "renounceOwnership",
      "outputs": [],
      "stateMutability": "nonpayable",
      "type": "function"
    },
    {
      "inputs": [
        {
          "internalType": "address",
          "name": "newOwner",
          "type": "address"
        }
      ],
      "name": "transferOwnership",
      "outputs": [],
      "stateMutability": "nonpayable",
      "type": "function"
    },
    {
      "inputs": [
        {
          "internalType": "contract IBEP20",
          "name": "_stakedToken",
          "type": "address"
        },
        {
          "internalType": "contract IBEP20",
          "name": "_rewardToken",
          "type": "address"
        },
        {
          "internalType": "uint256",
          "name": "_rewardPerBlock",
          "type": "uint256"
        },
        {
          "internalType": "uint256",
          "name": "_startBlock",
          "type": "uint256"
        },
        {
          "internalType": "uint256",
          "name": "_bonusEndBlock",
          "type": "uint256"
        },
        {
          "internalType": "uint256",
          "name": "_poolLimitPerUser",
          "type": "uint256"
        },
        {
          "internalType": "address",
          "name": "_admin",
          "type": "address"
        }
      ],
      "name": "deployPool",
      "outputs": [],
      "stateMutability": "nonpayable",
      "type": "function"
    }
  ],
  "bytecode": "0x608060405234801561001057600080fd5b5060006100216100c460201b60201c565b9050806000806101000a81548173ffffffffffffffffffffffffffffffffffffffff021916908373ffffffffffffffffffffffffffffffffffffffff1602179055508073ffffffffffffffffffffffffffffffffffffffff16600073ffffffffffffffffffffffffffffffffffffffff167f8be0079c531659141344cd1fd0a4f28419497f9722a3daafe3b4186f6b6457e060405160405180910390a3506100cc565b600033905090565b613821806100db6000396000f3fe608060405234801561001057600080fd5b506004361061004c5760003560e01c8063715018a6146100515780638da5cb5b1461005b578063cc8402f51461008f578063f2fde38b1461013b575b600080fd5b61005961017f565b005b6100636102ec565b604051808273ffffffffffffffffffffffffffffffffffffffff16815260200191505060405180910390f35b610139600480360360e08110156100a557600080fd5b81019080803573ffffffffffffffffffffffffffffffffffffffff169060200190929190803573ffffffffffffffffffffffffffffffffffffffff16906020019092919080359060200190929190803590602001909291908035906020019092919080359060200190929190803573ffffffffffffffffffffffffffffffffffffffff169060200190929190505050610315565b005b61017d6004803603602081101561015157600080fd5b81019080803573ffffffffffffffffffffffffffffffffffffffff169060200190929190505050610751565b005b610187610943565b73ffffffffffffffffffffffffffffffffffffffff166101a56102ec565b73ffffffffffffffffffffffffffffffffffffffff161461022e576040517f08c379a00000000000000000000000000000000000000000000000000000000081526004018080602001828103825260208152602001807f4f776e61626c653a2063616c6c6572206973206e6f7420746865206f776e657281525060200191505060405180910390fd5b600073ffffffffffffffffffffffffffffffffffffffff1660008054906101000a900473ffffffffffffffffffffffffffffffffffffffff1673ffffffffffffffffffffffffffffffffffffffff167f8be0079c531659141344cd1fd0a4f28419497f9722a3daafe3b4186f6b6457e060405160405180910390a360008060006101000a81548173ffffffffffffffffffffffffffffffffffffffff021916908373ffffffffffffffffffffffffffffffffffffffff160217905550565b60008060009054906101000a900473ffffffffffffffffffffffffffffffffffffffff16905090565b61031d610943565b73ffffffffffffffffffffffffffffffffffffffff1661033b6102ec565b73ffffffffffffffffffffffffffffffffffffffff16146103c4576040517f08c379a00000000000000000000000000000000000000000000000000000000081526004018080602001828103825260208152602001807f4f776e61626c653a2063616c6c6572206973206e6f7420746865206f776e657281525060200191505060405180910390fd5b60008773ffffffffffffffffffffffffffffffffffffffff166318160ddd6040518163ffffffff1660e01b815260040160206040518083038186803b15801561040c57600080fd5b505afa158015610420573d6000803e3d6000fd5b505050506040513d602081101561043657600080fd5b8101908080519060200190929190505050101561045257600080fd5b60008673ffffffffffffffffffffffffffffffffffffffff166318160ddd6040518163ffffffff1660e01b815260040160206040518083038186803b15801561049a57600080fd5b505afa1580156104ae573d6000803e3d6000fd5b505050506040513d60208110156104c457600080fd5b810190808051906020019092919050505010156104e057600080fd5b8573ffffffffffffffffffffffffffffffffffffffff168773ffffffffffffffffffffffffffffffffffffffff161415610582576040517f08c379a000000000000000000000000000000000000000000000000000000000815260040180806020018281038252601b8152602001807f546f6b656e73206d75737420626520626520646966666572656e74000000000081525060200191505060405180910390fd5b6060604051806020016105949061094b565b6020820181038252601f19601f8201166040525090506000888887604051602001808473ffffffffffffffffffffffffffffffffffffffff1660601b81526014018373ffffffffffffffffffffffffffffffffffffffff1660601b815260140182815260200193505050506040516020818303038152906040528051906020012090506000818351602085016000f590508073ffffffffffffffffffffffffffffffffffffffff166383a5041c8b8b8b8b8b8b8b6040518863ffffffff1660e01b8152600401808873ffffffffffffffffffffffffffffffffffffffff1681526020018773ffffffffffffffffffffffffffffffffffffffff1681526020018681526020018581526020018481526020018381526020018273ffffffffffffffffffffffffffffffffffffffff168152602001975050505050505050600060405180830381600087803b1580156106ea57600080fd5b505af11580156106fe573d6000803e3d6000fd5b505050508073ffffffffffffffffffffffffffffffffffffffff167fe0d103a92c6ff6c4aceb49d436f4028e0deb4884fdbcb9f32b03045eabb44a6c60405160405180910390a250505050505050505050565b610759610943565b73ffffffffffffffffffffffffffffffffffffffff166107776102ec565b73ffffffffffffffffffffffffffffffffffffffff1614610800576040517f08c379a00000000000000000000000000000000000000000000000000000000081526004018080602001828103825260208152602001807f4f776e61626c653a2063616c6c6572206973206e6f7420746865206f776e657281525060200191505060405180910390fd5b600073ffffffffffffffffffffffffffffffffffffffff168173ffffffffffffffffffffffffffffffffffffffff161415610886576040517f08c379a00000000000000000000000000000000000000000000000000000000081526004018080602001828103825260268152602001806137c66026913960400191505060405180910390fd5b8073ffffffffffffffffffffffffffffffffffffffff1660008054906101000a900473ffffffffffffffffffffffffffffffffffffffff1673ffffffffffffffffffffffffffffffffffffffff167f8be0079c531659141344cd1fd0a4f28419497f9722a3daafe3b4186f6b6457e060405160405180910390a3806000806101000a81548173ffffffffffffffffffffffffffffffffffffffff021916908373ffffffffffffffffffffffffffffffffffffffff16021790555050565b600033905090565b612e6d806109598339019056fe608060405234801561001057600080fd5b50600061002161010c60201b60201c565b9050806000806101000a81548173ffffffffffffffffffffffffffffffffffffffff021916908373ffffffffffffffffffffffffffffffffffffffff1602179055508073ffffffffffffffffffffffffffffffffffffffff16600073ffffffffffffffffffffffffffffffffffffffff167f8be0079c531659141344cd1fd0a4f28419497f9722a3daafe3b4186f6b6457e060405160405180910390a3506001808190555033600260006101000a81548173ffffffffffffffffffffffffffffffffffffffff021916908373ffffffffffffffffffffffffffffffffffffffff160217905550610114565b600033905090565b612d4980620001246000396000f3fe608060405234801561001057600080fd5b50600436106101a95760003560e01c80638da5cb5b116100f9578063bd61719111610097578063db2e21bc11610071578063db2e21bc146105f3578063f2fde38b146105fd578063f40f0f5214610641578063f7c618c114610699576101a9565b8063bd6171911461056d578063cc7a262e146105a1578063ccd34cd5146105d5576101a9565b80639513997f116100d35780639513997f146104af578063a0b40905146104e7578063a9f8d18114610521578063b6b55f251461053f576101a9565b80638da5cb5b1461043d5780638f6629151461047157806392e8990e1461048f576101a9565b80633f138d4b11610166578063715018a611610140578063715018a61461035f57806380dc06721461036957806383a5041c146103735780638ae39cac1461041f576101a9565b80633f138d4b146102d557806348cd4cb11461032357806366fe9f8a14610341576101a9565b806301f8a976146101ae5780631959a002146101dc5780631aed65531461023b5780632e1a7d4d146102595780633279beab14610287578063392e53cd146102b5575b600080fd5b6101da600480360360208110156101c457600080fd5b81019080803590602001909291905050506106cd565b005b61021e600480360360208110156101f257600080fd5b81019080803573ffffffffffffffffffffffffffffffffffffffff169060200190929190505050610834565b604051808381526020018281526020019250505060405180910390f35b610243610858565b6040518082815260200191505060405180910390f35b6102856004803603602081101561026f57600080fd5b810190808035906020019092919050505061085e565b005b6102b36004803603602081101561029d57600080fd5b8101908080359060200190929190505050610b47565b005b6102bd610c46565b60405180821515815260200191505060405180910390f35b610321600480360360408110156102eb57600080fd5b81019080803573ffffffffffffffffffffffffffffffffffffffff16906020019092919080359060200190929190505050610c59565b005b61032b610f14565b6040518082815260200191505060405180910390f35b610349610f1a565b6040518082815260200191505060405180910390f35b610367610f20565b005b61037161108d565b005b61041d600480360360e081101561038957600080fd5b81019080803573ffffffffffffffffffffffffffffffffffffffff169060200190929190803573ffffffffffffffffffffffffffffffffffffffff16906020019092919080359060200190929190803590602001909291908035906020019092919080359060200190929190803573ffffffffffffffffffffffffffffffffffffffff169060200190929190505050611145565b005b6104276114c2565b6040518082815260200191505060405180910390f35b6104456114c8565b604051808273ffffffffffffffffffffffffffffffffffffffff16815260200191505060405180910390f35b6104796114f1565b6040518082815260200191505060405180910390f35b6104976114f7565b60405180821515815260200191505060405180910390f35b6104e5600480360360408110156104c557600080fd5b81019080803590602001909291908035906020019092919050505061150a565b005b61051f600480360360408110156104fd57600080fd5b810190808035151590602001909291908035906020019092919050505061173a565b005b610529611954565b6040518082815260200191505060405180910390f35b61056b6004803603602081101561055557600080fd5b810190808035906020019092919050505061195a565b005b610575611c7d565b604051808273ffffffffffffffffffffffffffffffffffffffff16815260200191505060405180910390f35b6105a9611ca3565b604051808273ffffffffffffffffffffffffffffffffffffffff16815260200191505060405180910390f35b6105dd611cc9565b6040518082815260200191505060405180910390f35b6105fb611ccf565b005b61063f6004803603602081101561061357600080fd5b81019080803573ffffffffffffffffffffffffffffffffffffffff169060200190929190505050611e64565b005b6106836004803603602081101561065757600080fd5b81019080803573ffffffffffffffffffffffffffffffffffffffff169060200190929190505050612056565b6040518082815260200191505060405180910390f35b6106a161227b565b604051808273ffffffffffffffffffffffffffffffffffffffff16815260200191505060405180910390f35b6106d56122a1565b73ffffffffffffffffffffffffffffffffffffffff166106f36114c8565b73ffffffffffffffffffffffffffffffffffffffff161461077c576040517f08c379a00000000000000000000000000000000000000000000000000000000081526004018080602001828103825260208152602001807f4f776e61626c653a2063616c6c6572206973206e6f7420746865206f776e657281525060200191505060405180910390fd5b60055443106107f3576040517f08c379a00000000000000000000000000000000000000000000000000000000081526004018080602001828103825260108152602001807f506f6f6c2068617320737461727465640000000000000000000000000000000081525060200191505060405180910390fd5b806008819055507f0c4d677eef92893ac7ec52faf8140fc6c851ab4736302b4f3a89dfb20696a0df816040518082815260200191505060405180910390a150565b600c6020528060005260406000206000915090508060000154908060010154905082565b60045481565b600260015414156108d7576040517f08c379a000000000000000000000000000000000000000000000000000000000815260040180806020018281038252601f8152602001807f5265656e7472616e637947756172643a207265656e7472616e742063616c6c0081525060200191505060405180910390fd5b60026001819055506000600c60003373ffffffffffffffffffffffffffffffffffffffff1673ffffffffffffffffffffffffffffffffffffffff1681526020019081526020016000209050818160000154101561099c576040517f08c379a000000000000000000000000000000000000000000000000000000000815260040180806020018281038252601b8152602001807f416d6f756e7420746f20776974686472617720746f6f2068696768000000000081525060200191505060405180910390fd5b6109a46122a9565b60006109e982600101546109db6009546109cd600354876000015461240c90919063ffffffff16565b61249290919063ffffffff16565b6124dc90919063ffffffff16565b90506000831115610a6157610a0b8383600001546124dc90919063ffffffff16565b8260000181905550610a603384600b60009054906101000a900473ffffffffffffffffffffffffffffffffffffffff1673ffffffffffffffffffffffffffffffffffffffff166125269092919063ffffffff16565b5b6000811115610ab857610ab73382600a60009054906101000a900473ffffffffffffffffffffffffffffffffffffffff1673ffffffffffffffffffffffffffffffffffffffff166125269092919063ffffffff16565b5b610ae5600954610ad7600354856000015461240c90919063ffffffff16565b61249290919063ffffffff16565b82600101819055503373ffffffffffffffffffffffffffffffffffffffff167f884edad9ce6fa2440d8a54cc123490eb96d2768479d49ff9c7366125a9424364846040518082815260200191505060405180910390a250506001808190555050565b610b4f6122a1565b73ffffffffffffffffffffffffffffffffffffffff16610b6d6114c8565b73ffffffffffffffffffffffffffffffffffffffff1614610bf6576040517f08c379a00000000000000000000000000000000000000000000000000000000081526004018080602001828103825260208152602001807f4f776e61626c653a2063616c6c6572206973206e6f7420746865206f776e657281525060200191505060405180910390fd5b610c433382600a60009054906101000a900473ffffffffffffffffffffffffffffffffffffffff1673ffffffffffffffffffffffffffffffffffffffff166125269092919063ffffffff16565b50565b600260159054906101000a900460ff1681565b610c616122a1565b73ffffffffffffffffffffffffffffffffffffffff16610c7f6114c8565b73ffffffffffffffffffffffffffffffffffffffff1614610d08576040517f08c379a00000000000000000000000000000000000000000000000000000000081526004018080602001828103825260208152602001807f4f776e61626c653a2063616c6c6572206973206e6f7420746865206f776e657281525060200191505060405180910390fd5b600b60009054906101000a900473ffffffffffffffffffffffffffffffffffffffff1673ffffffffffffffffffffffffffffffffffffffff168273ffffffffffffffffffffffffffffffffffffffff161415610dcc576040517f08c379a00000000000000000000000000000000000000000000000000000000081526004018080602001828103825260168152602001807f43616e6e6f74206265207374616b656420746f6b656e0000000000000000000081525060200191505060405180910390fd5b600a60009054906101000a900473ffffffffffffffffffffffffffffffffffffffff1673ffffffffffffffffffffffffffffffffffffffff168273ffffffffffffffffffffffffffffffffffffffff161415610e90576040517f08c379a00000000000000000000000000000000000000000000000000000000081526004018080602001828103825260168152602001807f43616e6e6f742062652072657761726420746f6b656e0000000000000000000081525060200191505060405180910390fd5b610ebb33828473ffffffffffffffffffffffffffffffffffffffff166125269092919063ffffffff16565b7f74545154aac348a3eac92596bd1971957ca94795f4e954ec5f613b55fab781298282604051808373ffffffffffffffffffffffffffffffffffffffff1681526020018281526020019250505060405180910390a15050565b60055481565b60075481565b610f286122a1565b73ffffffffffffffffffffffffffffffffffffffff16610f466114c8565b73ffffffffffffffffffffffffffffffffffffffff1614610fcf576040517f08c379a00000000000000000000000000000000000000000000000000000000081526004018080602001828103825260208152602001807f4f776e61626c653a2063616c6c6572206973206e6f7420746865206f776e657281525060200191505060405180910390fd5b600073ffffffffffffffffffffffffffffffffffffffff1660008054906101000a900473ffffffffffffffffffffffffffffffffffffffff1673ffffffffffffffffffffffffffffffffffffffff167f8be0079c531659141344cd1fd0a4f28419497f9722a3daafe3b4186f6b6457e060405160405180910390a360008060006101000a81548173ffffffffffffffffffffffffffffffffffffffff021916908373ffffffffffffffffffffffffffffffffffffffff160217905550565b6110956122a1565b73ffffffffffffffffffffffffffffffffffffffff166110b36114c8565b73ffffffffffffffffffffffffffffffffffffffff161461113c576040517f08c379a00000000000000000000000000000000000000000000000000000000081526004018080602001828103825260208152602001807f4f776e61626c653a2063616c6c6572206973206e6f7420746865206f776e657281525060200191505060405180910390fd5b43600481905550565b600260159054906101000a900460ff16156111c8576040517f08c379a00000000000000000000000000000000000000000000000000000000081526004018080602001828103825260138152602001807f416c726561647920696e697469616c697a65640000000000000000000000000081525060200191505060405180910390fd5b600260009054906101000a900473ffffffffffffffffffffffffffffffffffffffff1673ffffffffffffffffffffffffffffffffffffffff163373ffffffffffffffffffffffffffffffffffffffff161461128b576040517f08c379a000000000000000000000000000000000000000000000000000000000815260040180806020018281038252600b8152602001807f4e6f7420666163746f727900000000000000000000000000000000000000000081525060200191505060405180910390fd5b6001600260156101000a81548160ff02191690831515021790555086600b60006101000a81548173ffffffffffffffffffffffffffffffffffffffff021916908373ffffffffffffffffffffffffffffffffffffffff16021790555085600a60006101000a81548173ffffffffffffffffffffffffffffffffffffffff021916908373ffffffffffffffffffffffffffffffffffffffff1602179055508460088190555083600581905550826004819055506000821115611369576001600260146101000a81548160ff021916908315150217905550816007819055505b6000600a60009054906101000a900473ffffffffffffffffffffffffffffffffffffffff1673ffffffffffffffffffffffffffffffffffffffff1663313ce5676040518163ffffffff1660e01b815260040160206040518083038186803b1580156113d357600080fd5b505afa1580156113e7573d6000803e3d6000fd5b505050506040513d60208110156113fd57600080fd5b810190808051906020019092919050505060ff169050601e8110611489576040517f08c379a00000000000000000000000000000000000000000000000000000000081526004018080602001828103825260168152602001807f4d75737420626520696e666572696f7220746f2033300000000000000000000081525060200191505060405180910390fd5b61149d81601e6124dc90919063ffffffff16565b600a0a6009819055506005546006819055506114b882611e64565b5050505050505050565b60085481565b60008060009054906101000a900473ffffffffffffffffffffffffffffffffffffffff16905090565b60035481565b600260149054906101000a900460ff1681565b6115126122a1565b73ffffffffffffffffffffffffffffffffffffffff166115306114c8565b73ffffffffffffffffffffffffffffffffffffffff16146115b9576040517f08c379a00000000000000000000000000000000000000000000000000000000081526004018080602001828103825260208152602001807f4f776e61626c653a2063616c6c6572206973206e6f7420746865206f776e657281525060200191505060405180910390fd5b6005544310611630576040517f08c379a00000000000000000000000000000000000000000000000000000000081526004018080602001828103825260108152602001807f506f6f6c2068617320737461727465640000000000000000000000000000000081525060200191505060405180910390fd5b808210611688576040517f08c379a000000000000000000000000000000000000000000000000000000000815260040180806020018281038252602e815260200180612c95602e913960400191505060405180910390fd5b8143106116e0576040517f08c379a0000000000000000000000000000000000000000000000000000000008152600401808060200182810382526030815260200180612cc36030913960400191505060405180910390fd5b81600581905550806004819055506005546006819055507f7cd0ab87d19036f3dfadadb232c78aa4879dda3f0c994a9d637532410ee2ce068282604051808381526020018281526020019250505060405180910390a15050565b6117426122a1565b73ffffffffffffffffffffffffffffffffffffffff166117606114c8565b73ffffffffffffffffffffffffffffffffffffffff16146117e9576040517f08c379a00000000000000000000000000000000000000000000000000000000081526004018080602001828103825260208152602001807f4f776e61626c653a2063616c6c6572206973206e6f7420746865206f776e657281525060200191505060405180910390fd5b600260149054906101000a900460ff1661186b576040517f08c379a000000000000000000000000000000000000000000000000000000000815260040180806020018281038252600b8152602001807f4d7573742062652073657400000000000000000000000000000000000000000081525060200191505060405180910390fd5b81156118f45760075481116118e8576040517f08c379a00000000000000000000000000000000000000000000000000000000081526004018080602001828103825260188152602001807f4e6577206c696d6974206d75737420626520686967686572000000000000000081525060200191505060405180910390fd5b80600781905550611917565b81600260146101000a81548160ff02191690831515021790555060006007819055505b7f241f67ee5f41b7a5cabf911367329be7215900f602ebfc47f89dce2a6bcd847c6007546040518082815260200191505060405180910390a15050565b60065481565b600260015414156119d3576040517f08c379a000000000000000000000000000000000000000000000000000000000815260040180806020018281038252601f8152602001807f5265656e7472616e637947756172643a207265656e7472616e742063616c6c0081525060200191505060405180910390fd5b60026001819055506000600c60003373ffffffffffffffffffffffffffffffffffffffff1673ffffffffffffffffffffffffffffffffffffffff1681526020019081526020016000209050600260149054906101000a900460ff1615611ac257600754611a4d8260000154846125c890919063ffffffff16565b1115611ac1576040517f08c379a00000000000000000000000000000000000000000000000000000000081526004018080602001828103825260178152602001807f5573657220616d6f756e742061626f7665206c696d697400000000000000000081525060200191505060405180910390fd5b5b611aca6122a9565b600081600001541115611b77576000611b1c8260010154611b0e600954611b00600354876000015461240c90919063ffffffff16565b61249290919063ffffffff16565b6124dc90919063ffffffff16565b90506000811115611b7557611b743382600a60009054906101000a900473ffffffffffffffffffffffffffffffffffffffff1673ffffffffffffffffffffffffffffffffffffffff166125269092919063ffffffff16565b5b505b6000821115611bef57611b978282600001546125c890919063ffffffff16565b8160000181905550611bee333084600b60009054906101000a900473ffffffffffffffffffffffffffffffffffffffff1673ffffffffffffffffffffffffffffffffffffffff16612650909392919063ffffffff16565b5b611c1c600954611c0e600354846000015461240c90919063ffffffff16565b61249290919063ffffffff16565b81600101819055503373ffffffffffffffffffffffffffffffffffffffff167fe1fffcc4923d04b559f4d29a8bfc6cda04eb5b0d3c460751c2402c5c5cc9109c836040518082815260200191505060405180910390a2506001808190555050565b600260009054906101000a900473ffffffffffffffffffffffffffffffffffffffff1681565b600b60009054906101000a900473ffffffffffffffffffffffffffffffffffffffff1681565b60095481565b60026001541415611d48576040517f08c379a000000000000000000000000000000000000000000000000000000000815260040180806020018281038252601f8152602001807f5265656e7472616e637947756172643a207265656e7472616e742063616c6c0081525060200191505060405180910390fd5b60026001819055506000600c60003373ffffffffffffffffffffffffffffffffffffffff1673ffffffffffffffffffffffffffffffffffffffff168152602001908152602001600020905060008160000154905060008260000181905550600082600101819055506000811115611e0757611e063382600b60009054906101000a900473ffffffffffffffffffffffffffffffffffffffff1673ffffffffffffffffffffffffffffffffffffffff166125269092919063ffffffff16565b5b3373ffffffffffffffffffffffffffffffffffffffff167f5fafa99d0643513820be26656b45130b01e1c03062e1266bf36f88cbd3bd969583600001546040518082815260200191505060405180910390a2505060018081905550565b611e6c6122a1565b73ffffffffffffffffffffffffffffffffffffffff16611e8a6114c8565b73ffffffffffffffffffffffffffffffffffffffff1614611f13576040517f08c379a00000000000000000000000000000000000000000000000000000000081526004018080602001828103825260208152602001807f4f776e61626c653a2063616c6c6572206973206e6f7420746865206f776e657281525060200191505060405180910390fd5b600073ffffffffffffffffffffffffffffffffffffffff168173ffffffffffffffffffffffffffffffffffffffff161415611f99576040517f08c379a0000000000000000000000000000000000000000000000000000000008152600401808060200182810382526026815260200180612c6f6026913960400191505060405180910390fd5b8073ffffffffffffffffffffffffffffffffffffffff1660008054906101000a900473ffffffffffffffffffffffffffffffffffffffff1673ffffffffffffffffffffffffffffffffffffffff167f8be0079c531659141344cd1fd0a4f28419497f9722a3daafe3b4186f6b6457e060405160405180910390a3806000806101000a81548173ffffffffffffffffffffffffffffffffffffffff021916908373ffffffffffffffffffffffffffffffffffffffff16021790555050565b600080600c60008473ffffffffffffffffffffffffffffffffffffffff1673ffffffffffffffffffffffffffffffffffffffff16815260200190815260200160002090506000600b60009054906101000a900473ffffffffffffffffffffffffffffffffffffffff1673ffffffffffffffffffffffffffffffffffffffff166370a08231306040518263ffffffff1660e01b8152600401808273ffffffffffffffffffffffffffffffffffffffff16815260200191505060206040518083038186803b15801561212557600080fd5b505afa158015612139573d6000803e3d6000fd5b505050506040513d602081101561214f57600080fd5b8101908080519060200190929190505050905060065443118015612174575060008114155b1561222e57600061218760065443612711565b905060006121a06008548361240c90919063ffffffff16565b905060006121df6121ce856121c06009548661240c90919063ffffffff16565b61249290919063ffffffff16565b6003546125c890919063ffffffff16565b90506122228560010154612214600954612206858a6000015461240c90919063ffffffff16565b61249290919063ffffffff16565b6124dc90919063ffffffff16565b95505050505050612276565b6122718260010154612263600954612255600354876000015461240c90919063ffffffff16565b61249290919063ffffffff16565b6124dc90919063ffffffff16565b925050505b919050565b600a60009054906101000a900473ffffffffffffffffffffffffffffffffffffffff1681565b600033905090565b60065443116122b75761240a565b6000600b60009054906101000a900473ffffffffffffffffffffffffffffffffffffffff1673ffffffffffffffffffffffffffffffffffffffff166370a08231306040518263ffffffff1660e01b8152600401808273ffffffffffffffffffffffffffffffffffffffff16815260200191505060206040518083038186803b15801561234257600080fd5b505afa158015612356573d6000803e3d6000fd5b505050506040513d602081101561236c57600080fd5b81019080805190602001909291905050509050600081141561239557436006819055505061240a565b60006123a360065443612711565b905060006123bc6008548361240c90919063ffffffff16565b90506123f96123e8846123da6009548561240c90919063ffffffff16565b61249290919063ffffffff16565b6003546125c890919063ffffffff16565b600381905550436006819055505050505b565b60008083141561241f576000905061248c565b600082840290508284828161243057fe5b0414612487576040517f08c379a0000000000000000000000000000000000000000000000000000000008152600401808060200182810382526021815260200180612cf36021913960400191505060405180910390fd5b809150505b92915050565b60006124d483836040518060400160405280601a81526020017f536166654d6174683a206469766973696f6e206279207a65726f000000000000815250612766565b905092915050565b600061251e83836040518060400160405280601e81526020017f536166654d6174683a207375627472616374696f6e206f766572666c6f77000081525061282c565b905092915050565b6125c38363a9059cbb60e01b8484604051602401808373ffffffffffffffffffffffffffffffffffffffff16815260200182815260200192505050604051602081830303815290604052907bffffffffffffffffffffffffffffffffffffffffffffffffffffffff19166020820180517bffffffffffffffffffffffffffffffffffffffffffffffffffffffff83818316178352505050506128ec565b505050565b600080828401905083811015612646576040517f08c379a000000000000000000000000000000000000000000000000000000000815260040180806020018281038252601b8152602001807f536166654d6174683a206164646974696f6e206f766572666c6f77000000000081525060200191505060405180910390fd5b8091505092915050565b61270b846323b872dd60e01b858585604051602401808473ffffffffffffffffffffffffffffffffffffffff1681526020018373ffffffffffffffffffffffffffffffffffffffff1681526020018281526020019350505050604051602081830303815290604052907bffffffffffffffffffffffffffffffffffffffffffffffffffffffff19166020820180517bffffffffffffffffffffffffffffffffffffffffffffffffffffffff83818316178352505050506128ec565b50505050565b600060045482116127365761272f83836124dc90919063ffffffff16565b9050612760565b60045483106127485760009050612760565b61275d836004546124dc90919063ffffffff16565b90505b92915050565b60008083118290612812576040517f08c379a00000000000000000000000000000000000000000000000000000000081526004018080602001828103825283818151815260200191508051906020019080838360005b838110156127d75780820151818401526020810190506127bc565b50505050905090810190601f1680156128045780820380516001836020036101000a031916815260200191505b509250505060405180910390fd5b50600083858161281e57fe5b049050809150509392505050565b60008383111582906128d9576040517f08c379a00000000000000000000000000000000000000000000000000000000081526004018080602001828103825283818151815260200191508051906020019080838360005b8381101561289e578082015181840152602081019050612883565b50505050905090810190601f1680156128cb5780820380516001836020036101000a031916815260200191505b509250505060405180910390fd5b5060008385039050809150509392505050565b606061294e826040518060400160405280602081526020017f5361666542455032303a206c6f772d6c6576656c2063616c6c206661696c65648152508573ffffffffffffffffffffffffffffffffffffffff166129db9092919063ffffffff16565b90506000815111156129d65780806020019051602081101561296f57600080fd5b81019080805190602001909291905050506129d5576040517f08c379a000000000000000000000000000000000000000000000000000000000815260040180806020018281038252602a815260200180612c45602a913960400191505060405180910390fd5b5b505050565b60606129ea84846000856129f3565b90509392505050565b60606129fe85612bf9565b612a70576040517f08c379a000000000000000000000000000000000000000000000000000000000815260040180806020018281038252601d8152602001807f416464726573733a2063616c6c20746f206e6f6e2d636f6e747261637400000081525060200191505060405180910390fd5b600060608673ffffffffffffffffffffffffffffffffffffffff1685876040518082805190602001908083835b60208310612ac05780518252602082019150602081019050602083039250612a9d565b6001836020036101000a03801982511681845116808217855250505050505090500191505060006040518083038185875af1925050503d8060008114612b22576040519150601f19603f3d011682016040523d82523d6000602084013e612b27565b606091505b50915091508115612b3c578092505050612bf1565b600081511115612b4f5780518082602001fd5b836040517f08c379a00000000000000000000000000000000000000000000000000000000081526004018080602001828103825283818151815260200191508051906020019080838360005b83811015612bb6578082015181840152602081019050612b9b565b50505050905090810190601f168015612be35780820380516001836020036101000a031916815260200191505b509250505060405180910390fd5b949350505050565b60008060007fc5d2460186f7233c927e7db2dcc703c0e500b653ca82273b7bfad8045d85a47060001b9050833f9150808214158015612c3b57506000801b8214155b9250505091905056fe5361666542455032303a204245503230206f7065726174696f6e20646964206e6f7420737563636565644f776e61626c653a206e6577206f776e657220697320746865207a65726f20616464726573734e6577207374617274426c6f636b206d757374206265206c6f776572207468616e206e657720656e64426c6f636b4e6577207374617274426c6f636b206d75737420626520686967686572207468616e2063757272656e7420626c6f636b536166654d6174683a206d756c7469706c69636174696f6e206f766572666c6f77a26469706673582212202ddc964080cebdce04125553ebb58f7285e5f6b3466a25f9601afc000ce5760f64736f6c634300060c00334f776e61626c653a206e6577206f776e657220697320746865207a65726f2061646472657373a26469706673582212207ef346436d456d5301efa6c225fc80ef13d3ff1792dca902c264de24efbd2da164736f6c634300060c0033",
  "immutableReferences": {},
  "source": "pragma solidity 0.6.12;\n\nimport './SmartChefInitializable.sol';\n\ncontract SmartChefFactory is Ownable {\n    event NewSmartChefContract(address indexed smartChef);\n\n    constructor() public {\n        //\n    }\n\n    /*\n     * @notice Deploy the pool\n     * @param _stakedToken: staked token address\n     * @param _rewardToken: reward token address\n     * @param _rewardPerBlock: reward per block (in rewardToken)\n     * @param _startBlock: start block\n     * @param _endBlock: end block\n     * @param _poolLimitPerUser: pool limit per user in stakedToken (if any, else 0)\n     * @param _admin: admin address with ownership\n     * @return address of new smart chef contract\n     */\n    function deployPool(\n        IBEP20 _stakedToken,\n        IBEP20 _rewardToken,\n        uint256 _rewardPerBlock,\n        uint256 _startBlock,\n        uint256 _bonusEndBlock,\n        uint256 _poolLimitPerUser,\n        address _admin\n    ) external onlyOwner {\n        require(_stakedToken.totalSupply() >= 0);\n        require(_rewardToken.totalSupply() >= 0);\n        require(_stakedToken != _rewardToken, \"Tokens must be be different\");\n\n        bytes memory bytecode = type(SmartChefInitializable).creationCode;\n        bytes32 salt = keccak256(abi.encodePacked(_stakedToken, _rewardToken, _startBlock));\n        address smartChefAddress;\n\n        assembly {\n            smartChefAddress := create2(0, add(bytecode, 32), mload(bytecode), salt)\n        }\n\n        SmartChefInitializable(smartChefAddress).initialize(\n            _stakedToken,\n            _rewardToken,\n            _rewardPerBlock,\n            _startBlock,\n            _bonusEndBlock,\n            _poolLimitPerUser,\n            _admin\n        );\n\n        emit NewSmartChefContract(smartChefAddress);\n    }\n}",
  "sourcePath": "/home/ubuntu/work/demoswap-project/demoswap/pancake-pool/contracts/SmartChefFactory.sol",
  "compiler": {
    "name": "solc",
    "version": "0.6.12+commit.27d51765.Emscripten.clang"
  },
  "schemaVersion": "3.3.3",
  "updatedAt": "2021-10-21T19:17:49.549Z",
  "devdoc": {
    "kind": "dev",
    "methods": {
      "owner()": {
        "details": "Returns the address of the current owner."
      },
      "renounceOwnership()": {
        "details": "Leaves the contract without owner. It will not be possible to call `onlyOwner` functions anymore. Can only be called by the current owner. NOTE: Renouncing ownership will leave the contract without an owner, thereby removing any functionality that is only available to the owner."
      },
      "transferOwnership(address)": {
        "details": "Transfers ownership of the contract to a new account (`newOwner`). Can only be called by the current owner."
      }
    },
    "version": 1
  },
  "userdoc": {
    "kind": "user",
    "methods": {},
    "version": 1
  }
}