{
  "contractName": "VaultOwner",
  "abi": [
    {
      "inputs": [
        {
          "internalType": "address",
          "name": "_cakeVaultAddress",
          "type": "address"
        }
      ],
      "stateMutability": "nonpayable",
      "type": "constructor"
    },
    {
      "anonymous": false,
      "inputs": [
        {
          "indexed": true,
          "internalType": "address",
          "name": "previousOwner",
          "type": "address"
        },
        {
          "indexed": true,
          "internalType": "address",
          "name": "newOwner",
          "type": "address"
        }
      ],
      "name": "OwnershipTransferred",
      "type": "event"
    },
    {
      "inputs": [],
      "name": "cakeVault",
      "outputs": [
        {
          "internalType": "contract CakeVault",
          "name": "",
          "type": "address"
        }
      ],
      "stateMutability": "view",
      "type": "function",
      "constant": true
    },
    {
      "inputs": [],
      "name": "owner",
      "outputs": [
        {
          "internalType": "address",
          "name": "",
          "type": "address"
        }
      ],
      "stateMutability": "view",
      "type": "function",
      "constant": true
    },
    {
      "inputs": [],
      "name": "renounceOwnership",
      "outputs": [],
      "stateMutability": "nonpayable",
      "type": "function"
    },
    {
      "inputs": [
        {
          "internalType": "address",
          "name": "newOwner",
          "type": "address"
        }
      ],
      "name": "transferOwnership",
      "outputs": [],
      "stateMutability": "nonpayable",
      "type": "function"
    },
    {
      "inputs": [],
      "name": "setAdmin",
      "outputs": [],
      "stateMutability": "nonpayable",
      "type": "function"
    },
    {
      "inputs": [
        {
          "internalType": "address",
          "name": "_treasury",
          "type": "address"
        }
      ],
      "name": "setTreasury",
      "outputs": [],
      "stateMutability": "nonpayable",
      "type": "function"
    },
    {
      "inputs": [
        {
          "internalType": "uint256",
          "name": "_performanceFee",
          "type": "uint256"
        }
      ],
      "name": "setPerformanceFee",
      "outputs": [],
      "stateMutability": "nonpayable",
      "type": "function"
    },
    {
      "inputs": [
        {
          "internalType": "uint256",
          "name": "_callFee",
          "type": "uint256"
        }
      ],
      "name": "setCallFee",
      "outputs": [],
      "stateMutability": "nonpayable",
      "type": "function"
    },
    {
      "inputs": [
        {
          "internalType": "uint256",
          "name": "_withdrawFee",
          "type": "uint256"
        }
      ],
      "name": "setWithdrawFee",
      "outputs": [],
      "stateMutability": "nonpayable",
      "type": "function"
    },
    {
      "inputs": [
        {
          "internalType": "uint256",
          "name": "_withdrawFeePeriod",
          "type": "uint256"
        }
      ],
      "name": "setWithdrawFeePeriod",
      "outputs": [],
      "stateMutability": "nonpayable",
      "type": "function"
    },
    {
      "inputs": [
        {
          "internalType": "address",
          "name": "_token",
          "type": "address"
        }
      ],
      "name": "inCaseTokensGetStuck",
      "outputs": [],
      "stateMutability": "nonpayable",
      "type": "function"
    },
    {
      "inputs": [],
      "name": "pause",
      "outputs": [],
      "stateMutability": "nonpayable",
      "type": "function"
    },
    {
      "inputs": [],
      "name": "unpause",
      "outputs": [],
      "stateMutability": "nonpayable",
      "type": "function"
    }
  ],
  "bytecode": "0x60a060405234801561001057600080fd5b5060405161191a38038061191a8339818101604052602081101561003357600080fd5b8101908080519060200190929190505050600061005461012f60201b60201c565b9050806000806101000a81548173ffffffffffffffffffffffffffffffffffffffff021916908373ffffffffffffffffffffffffffffffffffffffff1602179055508073ffffffffffffffffffffffffffffffffffffffff16600073ffffffffffffffffffffffffffffffffffffffff167f8be0079c531659141344cd1fd0a4f28419497f9722a3daafe3b4186f6b6457e060405160405180910390a3508073ffffffffffffffffffffffffffffffffffffffff1660808173ffffffffffffffffffffffffffffffffffffffff1660601b8152505050610137565b600033905090565b60805160601c611799610181600039806102ea52806103bd52806104fa5280610637528061078952806108ba5280610b645280610cbe5280610dfb528061102052506117996000f3fe608060405234801561001057600080fd5b50600436106100cf5760003560e01c8063715018a61161008c578063b6ac642a11610066578063b6ac642a146101ee578063def68a9c1461021c578063f0f4426014610260578063f2fde38b146102a4576100cf565b8063715018a6146101a65780638456cb59146101b05780638da5cb5b146101ba576100cf565b80631b1f100a146100d45780631efac1b81461010857806326465826146101365780632cae2096146101645780633f4ba83a1461016e57806370897b2314610178575b600080fd5b6100dc6102e8565b604051808273ffffffffffffffffffffffffffffffffffffffff16815260200191505060405180910390f35b6101346004803603602081101561011e57600080fd5b810190808035906020019092919050505061030c565b005b6101626004803603602081101561014c57600080fd5b8101908080359060200190929190505050610449565b005b61016c610586565b005b6101766106d8565b005b6101a46004803603602081101561018e57600080fd5b8101908080359060200190929190505050610809565b005b6101ae610946565b005b6101b8610ab3565b005b6101c2610be4565b604051808273ffffffffffffffffffffffffffffffffffffffff16815260200191505060405180910390f35b61021a6004803603602081101561020457600080fd5b8101908080359060200190929190505050610c0d565b005b61025e6004803603602081101561023257600080fd5b81019080803573ffffffffffffffffffffffffffffffffffffffff169060200190929190505050610d4a565b005b6102a26004803603602081101561027657600080fd5b81019080803573ffffffffffffffffffffffffffffffffffffffff169060200190929190505050610f6f565b005b6102e6600480360360208110156102ba57600080fd5b81019080803573ffffffffffffffffffffffffffffffffffffffff1690602001909291905050506110c2565b005b7f000000000000000000000000000000000000000000000000000000000000000081565b6103146112b4565b73ffffffffffffffffffffffffffffffffffffffff16610332610be4565b73ffffffffffffffffffffffffffffffffffffffff16146103bb576040517f08c379a00000000000000000000000000000000000000000000000000000000081526004018080602001828103825260208152602001807f4f776e61626c653a2063616c6c6572206973206e6f7420746865206f776e657281525060200191505060405180910390fd5b7f000000000000000000000000000000000000000000000000000000000000000073ffffffffffffffffffffffffffffffffffffffff16631efac1b8826040518263ffffffff1660e01b815260040180828152602001915050600060405180830381600087803b15801561042e57600080fd5b505af1158015610442573d6000803e3d6000fd5b5050505050565b6104516112b4565b73ffffffffffffffffffffffffffffffffffffffff1661046f610be4565b73ffffffffffffffffffffffffffffffffffffffff16146104f8576040517f08c379a00000000000000000000000000000000000000000000000000000000081526004018080602001828103825260208152602001807f4f776e61626c653a2063616c6c6572206973206e6f7420746865206f776e657281525060200191505060405180910390fd5b7f000000000000000000000000000000000000000000000000000000000000000073ffffffffffffffffffffffffffffffffffffffff166326465826826040518263ffffffff1660e01b815260040180828152602001915050600060405180830381600087803b15801561056b57600080fd5b505af115801561057f573d6000803e3d6000fd5b5050505050565b61058e6112b4565b73ffffffffffffffffffffffffffffffffffffffff166105ac610be4565b73ffffffffffffffffffffffffffffffffffffffff1614610635576040517f08c379a00000000000000000000000000000000000000000000000000000000081526004018080602001828103825260208152602001807f4f776e61626c653a2063616c6c6572206973206e6f7420746865206f776e657281525060200191505060405180910390fd5b7f000000000000000000000000000000000000000000000000000000000000000073ffffffffffffffffffffffffffffffffffffffff1663704b6c02306040518263ffffffff1660e01b8152600401808273ffffffffffffffffffffffffffffffffffffffff168152602001915050600060405180830381600087803b1580156106be57600080fd5b505af11580156106d2573d6000803e3d6000fd5b50505050565b6106e06112b4565b73ffffffffffffffffffffffffffffffffffffffff166106fe610be4565b73ffffffffffffffffffffffffffffffffffffffff1614610787576040517f08c379a00000000000000000000000000000000000000000000000000000000081526004018080602001828103825260208152602001807f4f776e61626c653a2063616c6c6572206973206e6f7420746865206f776e657281525060200191505060405180910390fd5b7f000000000000000000000000000000000000000000000000000000000000000073ffffffffffffffffffffffffffffffffffffffff16633f4ba83a6040518163ffffffff1660e01b8152600401600060405180830381600087803b1580156107ef57600080fd5b505af1158015610803573d6000803e3d6000fd5b50505050565b6108116112b4565b73ffffffffffffffffffffffffffffffffffffffff1661082f610be4565b73ffffffffffffffffffffffffffffffffffffffff16146108b8576040517f08c379a00000000000000000000000000000000000000000000000000000000081526004018080602001828103825260208152602001807f4f776e61626c653a2063616c6c6572206973206e6f7420746865206f776e657281525060200191505060405180910390fd5b7f000000000000000000000000000000000000000000000000000000000000000073ffffffffffffffffffffffffffffffffffffffff166370897b23826040518263ffffffff1660e01b815260040180828152602001915050600060405180830381600087803b15801561092b57600080fd5b505af115801561093f573d6000803e3d6000fd5b5050505050565b61094e6112b4565b73ffffffffffffffffffffffffffffffffffffffff1661096c610be4565b73ffffffffffffffffffffffffffffffffffffffff16146109f5576040517f08c379a00000000000000000000000000000000000000000000000000000000081526004018080602001828103825260208152602001807f4f776e61626c653a2063616c6c6572206973206e6f7420746865206f776e657281525060200191505060405180910390fd5b600073ffffffffffffffffffffffffffffffffffffffff1660008054906101000a900473ffffffffffffffffffffffffffffffffffffffff1673ffffffffffffffffffffffffffffffffffffffff167f8be0079c531659141344cd1fd0a4f28419497f9722a3daafe3b4186f6b6457e060405160405180910390a360008060006101000a81548173ffffffffffffffffffffffffffffffffffffffff021916908373ffffffffffffffffffffffffffffffffffffffff160217905550565b610abb6112b4565b73ffffffffffffffffffffffffffffffffffffffff16610ad9610be4565b73ffffffffffffffffffffffffffffffffffffffff1614610b62576040517f08c379a00000000000000000000000000000000000000000000000000000000081526004018080602001828103825260208152602001807f4f776e61626c653a2063616c6c6572206973206e6f7420746865206f776e657281525060200191505060405180910390fd5b7f000000000000000000000000000000000000000000000000000000000000000073ffffffffffffffffffffffffffffffffffffffff16638456cb596040518163ffffffff1660e01b8152600401600060405180830381600087803b158015610bca57600080fd5b505af1158015610bde573d6000803e3d6000fd5b50505050565b60008060009054906101000a900473ffffffffffffffffffffffffffffffffffffffff16905090565b610c156112b4565b73ffffffffffffffffffffffffffffffffffffffff16610c33610be4565b73ffffffffffffffffffffffffffffffffffffffff1614610cbc576040517f08c379a00000000000000000000000000000000000000000000000000000000081526004018080602001828103825260208152602001807f4f776e61626c653a2063616c6c6572206973206e6f7420746865206f776e657281525060200191505060405180910390fd5b7f000000000000000000000000000000000000000000000000000000000000000073ffffffffffffffffffffffffffffffffffffffff1663b6ac642a826040518263ffffffff1660e01b815260040180828152602001915050600060405180830381600087803b158015610d2f57600080fd5b505af1158015610d43573d6000803e3d6000fd5b5050505050565b610d526112b4565b73ffffffffffffffffffffffffffffffffffffffff16610d70610be4565b73ffffffffffffffffffffffffffffffffffffffff1614610df9576040517f08c379a00000000000000000000000000000000000000000000000000000000081526004018080602001828103825260208152602001807f4f776e61626c653a2063616c6c6572206973206e6f7420746865206f776e657281525060200191505060405180910390fd5b7f000000000000000000000000000000000000000000000000000000000000000073ffffffffffffffffffffffffffffffffffffffff1663def68a9c826040518263ffffffff1660e01b8152600401808273ffffffffffffffffffffffffffffffffffffffff168152602001915050600060405180830381600087803b158015610e8257600080fd5b505af1158015610e96573d6000803e3d6000fd5b5050505060008173ffffffffffffffffffffffffffffffffffffffff166370a08231306040518263ffffffff1660e01b8152600401808273ffffffffffffffffffffffffffffffffffffffff16815260200191505060206040518083038186803b158015610f0357600080fd5b505afa158015610f17573d6000803e3d6000fd5b505050506040513d6020811015610f2d57600080fd5b81019080805190602001909291905050509050610f6b33828473ffffffffffffffffffffffffffffffffffffffff166112bc9092919063ffffffff16565b5050565b610f776112b4565b73ffffffffffffffffffffffffffffffffffffffff16610f95610be4565b73ffffffffffffffffffffffffffffffffffffffff161461101e576040517f08c379a00000000000000000000000000000000000000000000000000000000081526004018080602001828103825260208152602001807f4f776e61626c653a2063616c6c6572206973206e6f7420746865206f776e657281525060200191505060405180910390fd5b7f000000000000000000000000000000000000000000000000000000000000000073ffffffffffffffffffffffffffffffffffffffff1663f0f44260826040518263ffffffff1660e01b8152600401808273ffffffffffffffffffffffffffffffffffffffff168152602001915050600060405180830381600087803b1580156110a757600080fd5b505af11580156110bb573d6000803e3d6000fd5b5050505050565b6110ca6112b4565b73ffffffffffffffffffffffffffffffffffffffff166110e8610be4565b73ffffffffffffffffffffffffffffffffffffffff1614611171576040517f08c379a00000000000000000000000000000000000000000000000000000000081526004018080602001828103825260208152602001807f4f776e61626c653a2063616c6c6572206973206e6f7420746865206f776e657281525060200191505060405180910390fd5b600073ffffffffffffffffffffffffffffffffffffffff168173ffffffffffffffffffffffffffffffffffffffff1614156111f7576040517f08c379a00000000000000000000000000000000000000000000000000000000081526004018080602001828103825260268152602001806116ee6026913960400191505060405180910390fd5b8073ffffffffffffffffffffffffffffffffffffffff1660008054906101000a900473ffffffffffffffffffffffffffffffffffffffff1673ffffffffffffffffffffffffffffffffffffffff167f8be0079c531659141344cd1fd0a4f28419497f9722a3daafe3b4186f6b6457e060405160405180910390a3806000806101000a81548173ffffffffffffffffffffffffffffffffffffffff021916908373ffffffffffffffffffffffffffffffffffffffff16021790555050565b600033905090565b6113598363a9059cbb60e01b8484604051602401808373ffffffffffffffffffffffffffffffffffffffff16815260200182815260200192505050604051602081830303815290604052907bffffffffffffffffffffffffffffffffffffffffffffffffffffffff19166020820180517bffffffffffffffffffffffffffffffffffffffffffffffffffffffff838183161783525050505061135e565b505050565b60606113c0826040518060400160405280602081526020017f5361666545524332303a206c6f772d6c6576656c2063616c6c206661696c65648152508573ffffffffffffffffffffffffffffffffffffffff1661144d9092919063ffffffff16565b9050600081511115611448578080602001905160208110156113e157600080fd5b8101908080519060200190929190505050611447576040517f08c379a000000000000000000000000000000000000000000000000000000000815260040180806020018281038252602a81526020018061173a602a913960400191505060405180910390fd5b5b505050565b606061145c8484600085611465565b90509392505050565b6060824710156114c0576040517f08c379a00000000000000000000000000000000000000000000000000000000081526004018080602001828103825260268152602001806117146026913960400191505060405180910390fd5b6114c98561160e565b61153b576040517f08c379a000000000000000000000000000000000000000000000000000000000815260040180806020018281038252601d8152602001807f416464726573733a2063616c6c20746f206e6f6e2d636f6e747261637400000081525060200191505060405180910390fd5b600060608673ffffffffffffffffffffffffffffffffffffffff1685876040518082805190602001908083835b6020831061158b5780518252602082019150602081019050602083039250611568565b6001836020036101000a03801982511681845116808217855250505050505090500191505060006040518083038185875af1925050503d80600081146115ed576040519150601f19603f3d011682016040523d82523d6000602084013e6115f2565b606091505b5091509150611602828286611621565b92505050949350505050565b600080823b905060008111915050919050565b60608315611631578290506116e6565b6000835111156116445782518084602001fd5b816040517f08c379a00000000000000000000000000000000000000000000000000000000081526004018080602001828103825283818151815260200191508051906020019080838360005b838110156116ab578082015181840152602081019050611690565b50505050905090810190601f1680156116d85780820380516001836020036101000a031916815260200191505b509250505060405180910390fd5b939250505056fe4f776e61626c653a206e6577206f776e657220697320746865207a65726f2061646472657373416464726573733a20696e73756666696369656e742062616c616e636520666f722063616c6c5361666545524332303a204552433230206f7065726174696f6e20646964206e6f742073756363656564a264697066735822122006770db624e7a5031bfecf6b5e529d2cac3509ea61bdff6a47c8b5f16e1feeea64736f6c634300060c0033",
  "immutableReferences": {
    "2825": [
      {
        "length": 32,
        "start": 746
      },
      {
        "length": 32,
        "start": 957
      },
      {
        "length": 32,
        "start": 1274
      },
      {
        "length": 32,
        "start": 1591
      },
      {
        "length": 32,
        "start": 1929
      },
      {
        "length": 32,
        "start": 2234
      },
      {
        "length": 32,
        "start": 2916
      },
      {
        "length": 32,
        "start": 3262
      },
      {
        "length": 32,
        "start": 3579
      },
      {
        "length": 32,
        "start": 4128
      }
    ]
  },
  "source": "pragma solidity 0.6.12;\n\nimport '@openzeppelin/contracts/access/Ownable.sol';\nimport '@openzeppelin/contracts/token/ERC20/IERC20.sol';\nimport '@openzeppelin/contracts/token/ERC20/SafeERC20.sol';\nimport './CakeVault.sol';\n\ncontract VaultOwner is Ownable {\n    using SafeERC20 for IERC20;\n\n    CakeVault public immutable cakeVault;\n\n    /**\n     * @notice Constructor\n     * @param _cakeVaultAddress: CakeVault contract address\n     */\n    constructor(address _cakeVaultAddress) public {\n        cakeVault = CakeVault(_cakeVaultAddress);\n    }\n\n    /**\n     * @notice Sets admin address to this address\n     * @dev Only callable by the contract owner.\n     * It makes the admin == owner.\n     */\n    function setAdmin() external onlyOwner {\n        cakeVault.setAdmin(address(this));\n    }\n\n    /**\n     * @notice Sets treasury address\n     * @dev Only callable by the contract owner.\n     */\n    function setTreasury(address _treasury) external onlyOwner {\n        cakeVault.setTreasury(_treasury);\n    }\n\n    /**\n     * @notice Sets performance fee\n     * @dev Only callable by the contract owner.\n     */\n    function setPerformanceFee(uint256 _performanceFee) external onlyOwner {\n        cakeVault.setPerformanceFee(_performanceFee);\n    }\n\n    /**\n     * @notice Sets call fee\n     * @dev Only callable by the contract owner.\n     */\n    function setCallFee(uint256 _callFee) external onlyOwner {\n        cakeVault.setCallFee(_callFee);\n    }\n\n    /**\n     * @notice Sets withdraw fee\n     * @dev Only callable by the contract owner.\n     */\n    function setWithdrawFee(uint256 _withdrawFee) external onlyOwner {\n        cakeVault.setWithdrawFee(_withdrawFee);\n    }\n\n    /**\n     * @notice Sets withdraw fee period\n     * @dev Only callable by the contract owner.\n     */\n    function setWithdrawFeePeriod(uint256 _withdrawFeePeriod) external onlyOwner {\n        cakeVault.setWithdrawFeePeriod(_withdrawFeePeriod);\n    }\n\n    /**\n     * @notice Withdraw unexpected tokens sent to the Cake Vault\n     */\n    function inCaseTokensGetStuck(address _token) external onlyOwner {\n        cakeVault.inCaseTokensGetStuck(_token);\n        uint256 amount = IERC20(_token).balanceOf(address(this));\n        IERC20(_token).safeTransfer(msg.sender, amount);\n    }\n\n    /**\n     * @notice Triggers stopped state\n     * @dev Only possible when contract not paused.\n     */\n    function pause() external onlyOwner {\n        cakeVault.pause();\n    }\n\n    /**\n     * @notice Returns to normal state\n     * @dev Only possible when contract is paused.\n     */\n    function unpause() external onlyOwner {\n        cakeVault.unpause();\n    }\n}",
  "sourcePath": "/home/ubuntu/work/demoswap-project/demoswap/pancake-pool/contracts/VaultOwner.sol",
  "compiler": {
    "name": "solc",
    "version": "0.6.12+commit.27d51765.Emscripten.clang"
  },
  "schemaVersion": "3.3.3",
  "updatedAt": "2021-10-21T19:19:36.625Z",
  "networkType": "ethereum",
  "devdoc": {
    "kind": "dev",
    "methods": {
      "constructor": {
        "params": {
          "_cakeVaultAddress": ": CakeVault contract address"
        }
      },
      "owner()": {
        "details": "Returns the address of the current owner."
      },
      "pause()": {
        "details": "Only possible when contract not paused."
      },
      "renounceOwnership()": {
        "details": "Leaves the contract without owner. It will not be possible to call `onlyOwner` functions anymore. Can only be called by the current owner. NOTE: Renouncing ownership will leave the contract without an owner, thereby removing any functionality that is only available to the owner."
      },
      "setAdmin()": {
        "details": "Only callable by the contract owner. It makes the admin == owner."
      },
      "setCallFee(uint256)": {
        "details": "Only callable by the contract owner."
      },
      "setPerformanceFee(uint256)": {
        "details": "Only callable by the contract owner."
      },
      "setTreasury(address)": {
        "details": "Only callable by the contract owner."
      },
      "setWithdrawFee(uint256)": {
        "details": "Only callable by the contract owner."
      },
      "setWithdrawFeePeriod(uint256)": {
        "details": "Only callable by the contract owner."
      },
      "transferOwnership(address)": {
        "details": "Transfers ownership of the contract to a new account (`newOwner`). Can only be called by the current owner."
      },
      "unpause()": {
        "details": "Only possible when contract is paused."
      }
    },
    "version": 1
  },
  "userdoc": {
    "kind": "user",
    "methods": {
      "constructor": "Constructor",
      "inCaseTokensGetStuck(address)": {
        "notice": "Withdraw unexpected tokens sent to the Cake Vault"
      },
      "pause()": {
        "notice": "Triggers stopped state"
      },
      "setAdmin()": {
        "notice": "Sets admin address to this address"
      },
      "setCallFee(uint256)": {
        "notice": "Sets call fee"
      },
      "setPerformanceFee(uint256)": {
        "notice": "Sets performance fee"
      },
      "setTreasury(address)": {
        "notice": "Sets treasury address"
      },
      "setWithdrawFee(uint256)": {
        "notice": "Sets withdraw fee"
      },
      "setWithdrawFeePeriod(uint256)": {
        "notice": "Sets withdraw fee period"
      },
      "unpause()": {
        "notice": "Returns to normal state"
      }
    },
    "version": 1
  }
}